:0A0000000C9498010C945E050C941A
:10000A00CE050C9400000C9400000C9400000C9493
:10001A0040060C94AE060C942D070C9400000C9428
:10002A0000000C9400000C9400000C9400000C9446
:10003A0000000C9400000C9400000C94640C0C94C6
:10004A0000000C9400000C9400000C9400000C9426
:10005A0000000C94630C0C9400000C9400000C94A7
:10006A0000000C9400000C9400000C9400000C9406
:10007A0000000C9400000C9400000C9400000C94F6
:10008A0000000C9400000C94B30B0C9400000C9428
:10009A00360C0C9400000C9400000C9400000C9494
:1000AA0000000C9400000C9400000C9400000C94C6
:1000BA0000000C9400000C9400000C9400000C94B6
:1000CA0000001027E80364000A0001000010000184
:1000DA001000010000010000000000000000C40937
:1000EA005E010A00020004A0000000030A000500E5
:1000FA000001020304051D00260033003C004900EC
:10010A0052005F00680000000201000304050607B0
:10011A0008000100020003000400050006000700B1
:10012A00080000000001000200030004000500327C
:10013A0000320032003200320032008C0092009805
:10014A00009E00A400AA00010204081020A8025878
:10015A00020802E001A4014001400100000000522F
:10016A0003A70257020702DF01A30152030000009E
:10017A0000000001020304051D00260033003C00B4
:10018A00490052005F0068000000000102030405F4
:10019A00060708000100020003000400050006002B
:1001AA000700080000000001000200030004000527
:1001BA0000320032003200320032003200140021D4
:1001CA00002E003B0048005500010204081020A838
:1001DA000258020802E001A40140014001000000A7
:1001EA00005203A70257020702DF01A301520300CC
:1001FA00000000000040105020603070010019001B
:10020A00050003000A0001000900008040C020A088
:10021A0060E0000000000000000000000000000094
:10022A0000000000000000000000000000000000C4
:10023A0000000000000000000000000000000000B4
:10024A0000000000000000000000000000000000A4
:10025A000000000000000000000000000000000094
:10026A000000000000000000000000000000000084
:10027A000000000000000000000000000000000074
:10028A000000000000000000000000000000000064
:10029A000000000000000000000000000000000054
:1002AA00000000000000000000000000BC028A02FA
:1002BA004402F401C2018601000000006400260124
:1002CA00260126012601260126010A000400DE0075
:1002DA000200E60EE80002001E0FEA000100011CFF
:1002EA00EC000800041CEE000100661CF80008007F
:1002FA00761CFE010100991E060201009C1F0802DD
:10030A0001009E1F0A020100A01F0C020100A41F87
:10031A000E020100422010020100442012020800CD
:10032A00462014020000F894EE27EFBBF1E0F5BF77
:10033A00E5BFE0937400E0937500F8E1A895A4B7CF
:10034A00A77FA4BFF0936000E09360008DE0A2E075
:10035A00BB27ED938A95E9F780E090E2A0E0B2E04E
:10036A00ED930197E9F7E4EDF2E085919591009715
:10037A0061F0A591B59105901590BF01F001059026
:10038A000D920197E1F7FB01F0CF8BBF8CBFE0E044
:10039A00EEBBEFEFEDBFE1E2EEBFC0E0D6E00C94BA
:1003AA00A91CEF97EF97239781E8A0E0B0E0ECE76C
:1003BA00F1E00E9486311A930A9310E0193078F519
:1003CA00AAE01A9FF001E055F54F0F01E12FF0E086
:1003DA00DE01AF58BF4F0E94C127EE54F54F0F01FF
:1003EA00E12FF0E0DE01A15ABF4F0E94C127EC5471
:1003FA00F54FA6E0A0830E94CE27A0E0A083AAE042
:10040A001A9FF001EA54F54F0E94D427AAE01A9FD6
:10041A00F001E854F54F0E94D4271F5FCFCF10E0B8
:10042A00193008F04CC000E0063008F046C0A0E3DE
:10043A001A9FF001E65FF44F0E94D927E1E0EC939E
:10044A000E94DE27DF01E02FF0E00E94E427DE01B0
:10045A00A75ABF4F0E94EA27EC930E94EF270E94F7
:10046A00E427DE01A35BBF4F0E94FA270E940728F8
:10047A000E94E427DE01AF5BBF4F0E94FA27E25DCC
:10048A00F44FDF01E02F0E940F28BF01E12FF0E0B7
:10049A00DE0193960E9415280D901C90E02FF0E043
:1004AA00DE01D5960E9415280E943F31E029F129E4
:1004BA00DB01ED93FC930F5FB7CF1F5FB1CF10E065
:1004CA00193030F50E941A28EA0FFB1F0F01E12F9D
:1004DA00F0E0DE015A960E94EA27F0E0ED93FC93E1
:1004EA000E941A28AE0FBF1F1296E6E0EC930E94F4
:1004FA001A28EA0FFB1F33960F01E12FF0E0DE0105
:10050A001896EE0FFF1F0E94EA27EC931F5FD8CFC1
:10051A0010E01630E0F4A5E01A9FF001E252F34F22
:10052A000F01E12FF0E0DE0112960E94EA27EC9318
:10053A000E942128A8EEB3E0A083B183A5E01A9F08
:10054A00F001EF51F34F0E94D4271F5FE2CFE6E498
:10055A00F0E00E942728EAE0F0E00E942C28ECE371
:10056A00F0E00E943128E0E0F0E00E943628E0E066
:10057A00F0E00E943B28E1EEF0E00E94402810E003
:10058A001230E8F4A6E01A9FF001E85FF24FAEE1FC
:10059A00B0E0A083B183A6E01A9FF001E65FF24FB4
:1005AA00A8E2B0E0A083B183A6E01A9FF001E45F5D
:1005BA00F24FAFE0B0E0A083B1831F5FE1CFECE37D
:1005CA00E093250DE0931E0DE0E4F6E00E94452835
:1005DA00ECEDF5E00E944A28ECE2F1E00E944F2897
:1005EA000E945428EAE0F0E0E093230DF093240DF2
:1005FA00E3E1E093260D19810881EF96EF9625969F
:10060A000895EFEFE1B9E2B9E7EAE4B9E5B9EFEF46
:10061A00E7B9EFE7E8B9E8E0EAB9EFEFEBB9E6E006
:10062A00EDB9EFEFEEB9E0BBE1BBE1E0E3BBE4BB60
:10063A000895E0E0E4BDE5E0E5BDE1EFE6BDE0E018
:10064A00E7BDE8BDE09380000E945B280E945F2816
:10065A00E0E0E0938700E0938600E6E0E09389001B
:10066A00EAE1E0938800E0E0E0938B00E0938A00FF
:10067A00E0938D00E0938C00E2E0E0936F00E5E008
:10068A00E0936900E4EFE0936A00E3EEEDBBECBBB4
:10069A00E0E0E093C800E8EDE093C900E6E0E0930B
:1006AA00CA00E0E0E093CD00E0E1E093CC00E0E0B6
:1006BA00E5BFE0E8E0937400E0E0E0937500089598
:1006CA00AA930E94783110E040E050E010E8EE81F1
:1006DA00F0E0EA58F34EE0811E2B1460136028986C
:1006EA0000E0083078F42F98E12FE0783E2F303080
:1006FA0011F42D9801C02D9A110F2F9A00000000B5
:10070A000F5FEFCF2F9800002F9A000000E0003112
:10071A0060F42F98440F551FE0E01C99E1E0F0E0E7
:10072A004E2B5F2B2F9A0F5FF2CF289AFA010E9465
:10073A007F31C7C0E8E0E5B9E0E5ECBDEDB5E160C1
:10074A00EDBD0895AA93E881EEBDEDB5E078E9F331
:10075A00EEB5E88321960895E0E0EEBDEDB5E078C8
:10076A00E9F3EEB5089526971A937298AFE9EADF8E
:10077A0010E0163070F4E12FF0E0DE011196EA0F76
:10078A00FB1FFF93EF93E8DFAF91BF91EC931F5FDD
:10079A00F0CF729AA981AF3119F4AA81A63209F071
:1007AA0003C0E1E018818DC0E0E018818AC01A9385
:1007BA007298A7EDC7DFAFEFC5DF1EB5729A17FFB4
:1007CA0002C010E001C011E0E12F19910895BA9317
:1007DA00AA932497EC81FD810E945F30EC83FD830C
:1007EA00ED81E883EF73E883EC81EC7FE983E0E055
:1007FA00EA837298A3E8A6DFA881A4DFA981A2DF11
:10080A00AA81A0DF729A26960895BA93AA9324978A
:10081A001A930A93EE81FF810E945F30EE83FF8371
:10082A00EF81EA83EF73EA83EE81EC7FEB83E0E00A
:10083A00EC837298A2ED86DFAA8184DFAB8182DF26
:10084A00AC810E946528A0E07DDFA0E00E946528B7
:10085A0000E010E00031E2E01E0760F4F801E2581F
:10086A00F34EFF93EF9378DFAF91BF91EC930F5F55
:10087A001F4FF0CF729A1981088128960895BA936A
:10088A00AA931A930A937298E4E8EE83AE810E94BF
:10089A006528AD8157DFEC81AE2F54DF0C811D81B5
:1008AA00EA81FB810E171F0748F4AEE7BCE1A00FEF
:1008BA00B11FAC9147DF0F5F1F4FF2CF729A1981B8
:1008CA00088127960895BA93AA93A881B9819DDFD2
:1008DA006EDFE030E9F7A5E0B0E00E942130E88160
:1008EA00F981EB30A0E0FA0731F4E0EBFAE00E947C
:1008FA006A28AAE550C0EC30A0E0FA0739F4EAE029
:10090A00FBE00E946A28A0EBB1E046C0ED30A0E00F
:10091A00FA0731F4EAEBFCE00E946A28A4E23BC041
:10092A00EE30A0E0FA0731F4EEEDFCE00E946A280E
:10093A00AEE131C0EF30A0E0FA0731F4ECEFFCE0B1
:10094A000E946A28ACE027C0E031A0E0FA0731F43F
:10095A00E8E0FDE00E946A28A2E11DC0E131A0E0C2
:10096A00FA0731F4EAE1FDE00E946A28A2E113C025
:10097A00E231A0E0FA0731F4EBE6FCE10E946A28D2
:10098A00A1E009C0E331A0E0FA0741F4ECE2FDE09E
:10099A000E946A28A2E0B0E00E94AF2788C0BA93FA
:1009AA00AA93E881F981EB30A0E0FA0741F40E94AA
:1009BA007128E0EBFAE0FA93EA93AAE560C0EC301A
:1009CA00A0E0FA0749F40E947128EAE0FBE0FA93F2
:1009DA00EA93A0EBB1E054C0ED30A0E0FA0741F48D
:1009EA000E947128EAEBFCE0FA93EA93A4E247C07A
:1009FA00EE30A0E0FA0741F40E947128EEEDFCE027
:100A0A00FA93EA93AEE13BC0EF30A0E0FA0741F473
:100A1A000E947128ECEFFCE0FA93EA93ACE02FC055
:100A2A00E031A0E0FA0741F40E947128E8E0FDE015
:100A3A00FA93EA93A2E123C0E131A0E0FA0741F474
:100A4A000E947128EAE1FDE0FA93EA93A2E117C055
:100A5A00E231A0E0FA0741F40E947128EBE6FCE1DA
:100A6A00FA93EA93A1E00BC0E331A0E0FA0751F44C
:100A7A000E947128ECE2FDE0FA93EA93A2E0B0E06A
:100A8A000E94AF27E4E8EA93E0E0F0E0FA93EA9301
:100A9A00A0E1B2E0F4DE8BDEE030E9F7A881B981AB
:100AAA0096DE85DEE030E9F70000000000002296BD
:100ABA000895AA93EA93FA93EFB7EA93A091A91F2C
:100ACA00A13009F060C0489B21C0A091AB1FA130A2
:100ADA00E1F4A091A81FA130C1F4A091981EA13001
:100AEA00A1F4A091AA1FA13039F4E1EAE093CE0063
:100AFA00E091C800E072E1F30E947628E0E0E0931A
:100B0A00A91FE093AB1FE093A81F3DC048993BC0C3
:100B1A00E091AB1FE030B9F5E091981EE03099F50D
:100B2A00A0914220A13079F5A091AA1FA13039F4F1
:100B3A00E0EAE093CE00E091C800E072E1F3E1E080
:100B4A00E093AB1F0E948728E093A81FE0E0E093A0
:100B5A00A61FE093621CE093631CE091A01FE09340
:100B6A005D1CE1E0E093981E0E948C28E0939A1F96
:100B7A00F0939B1F0E949128E0935B1CE2E0E093B4
:100B8A00FF1B0E949828E991EFBFF991E991A99179
:100B9A001895AA93EA93EFB7EA93A091A91FA130F7
:100BAA0009F068C0499B30C0A091AB1FA13059F52C
:100BBA00E091981EE03039F5A091A71FA13019F5F0
:100BCA00A091AA1FA13039F4E1EBE093CE00E091A5
:100BDA00C800E072E1F30E94A228E0E0E093A71FB8
:100BEA00E1E0E093A61FE0E0E093981EE093AB1FDC
:100BFA00A091971EA13039F40E94AF280E94B5280F
:100C0A00E0E0E093971E36C0499934C0E091AB1FEB
:100C1A00E03081F5A091981EA13061F5A0914320A2
:100C2A00A13041F5A091AA1FA13039F4E0EBE0937D
:100C3A00CE00E091C800E072E1F3E0E0E093A21F89
:100C4A00E093A31FE093641CE093651CE0919E1F50
:100C5A00E0935E1CE0E00E94BF28E1E0E0935C1CA8
:100C6A00E0E0E093981EE0934320E1E0E093A71FC1
:100C7A00E093AB1F69C0AA93EA93EFB7EA93659929
:100C8A002DC0A091AA1FA13019F5E2E0E093CE0091
:100C9A00E091C800E072E1F3E0E0E093CE00E09179
:100CAA00C800E072E1F3E1E0E093CE00E091C80011
:100CBA00E072E1F3E3EAE093CE00E091C800E0726B
:100CCA00E1F3E3E0E093CE00E091C800E072E1F3E3
:100CDA000E94C428E1E0E093432036C0E0E0E093BC
:100CEA006A1CE1E0E093A91FE09342200E94CA280F
:100CFA00A091AA1FA13019F5E2E0E093CE00E0919D
:100D0A00C800E072E1F3E0E0E093CE00E091C800B1
:100D1A00E072E1F3E1E0E093CE00E091C800E07216
:100D2A00E1F3E2EAE093CE00E091C800E072E1F379
:100D3A00E3E0E093CE00E091C800E072E1F3E091D5
:100D4A00E10EED7F0E94D228E991EFBFE991A991C6
:100D5A0018950E94D728EF97EF97689786E9A0E041
:100D6A00B0E0ECE1F2E00E948631FE01FA93EA93E8
:100D7A00ECEAFFE1FA93EA93A6E9B0E00E94AF2712
:100D8A00669B53C00E94E5280E946B3101F5E1E0A1
:100D9A00F0E060E070E0E0932814F0932914609387
:100DAA002A1470932B140E94EE28E1E08E2EE09113
:100DBA005A1CE160E0935A1CE2E0EA1539F4E1E0DA
:100DCA009E2EE0E0E093E40EE093E50E1FC0E09172
:100DDA00210DF091220D0E94F428AE17BF0718F0DA
:100DEA000E94F9280CF407C00E94EE280E940929E3
:100DFA00E1E08E2E06C00E94EE28E1E08E2E0E94CF
:100E0A000929E0915A1CE160E0935A1CEDEAFFE1DE
:100E1A00FA93EA93FE013296FA93EA93A5E9B0E0CF
:100E2A000E94AF27E0E0E093AC1F0E941429EF96DE
:100E3A00EF966896E991EFBFF991E991B991A99175
:100E4A009991899179916991F990199009901895D8
:100E5A000E94D72829970E94783120E030E050E09C
:100E6A00E0E06499E1E04E2F541609F055C40E945F
:100E7A001929E130A0E0FA0721F0ED33A0E0FA07E2
:100E8A0009F404C0E937A0E0FA0709F404C0E53B15
:100E9A00A0E0FA0709F404C0E13FA0E0FA0709F468
:100EAA0004C0ED32A1E0FA07E9F50E9430150E946C
:100EBA005D15E0E0E0936D1CBB240E94F4281197B5
:100ECA0019F4E1E0F0E02AC00E94F428DD9719F451
:100EDA00EDE3F0E023C00E94F428A937E0E0BE0762
:100EEA0019F4E9E7F0E01AC00E94F428A53BE0E013
:100EFA00BE0719F4E5EBF0E011C00E94F428A13F07
:100F0A00E0E0BE0719F4E1EFF0E008C00E94F4281F
:100F1A00AD32E1E0BE0731F4EDE2F1E0E0936E1CA0
:100F2A00F0936F1CE091250DF0E00E94F4280E94D6
:100F3A000731EE31A0E0FA0749F4E1E0E71531F4B0
:100F4A007724E0915A1CEB7FE0935A1CA091601C15
:100F5A00A13071F4E091611CEF5FE093611CA091F4
:100F6A00611CAB3028F0E0E0E093601CE093611C68
:100F7A00A091031CA13019F40E941E2909F00FC088
:100F8A00E0E0E093031C0E94AF28E260E093E10EE8
:100F9A00E2E0E0936A1CE091E10E0E94B528A0917C
:100FAA006A1CA13019F40E941E2909F00AC0E091B6
:100FBA00E10EE2600E94D228E2E0E0936A1C0E94FD
:100FCA0026290E942C29A0910C1CA03021F4A09162
:100FDA00FE1BA03009F002C00E941929EA2DF0E098
:100FEA00E730A0E0FA0719F40E9447297EC3309738
:100FFA0009F47BC3E130A0E0FA0709F07FC2E0916F
:10100A0000B0E170E13021F4A0916D1CA03009F02C
:10101A000DC0AAEEBDE00E946729E1E0E0936D1CD5
:10102A00E0915A1CE860E0935A1C21C0E09100B09C
:10103A00E170E13099F4E091040DF091050D0E9400
:10104A006D2928F00E9477290E946D2908F001C0B5
:10105A00B394AEEEBDE00E94672909C0E09100B0EA
:10106A00E17029F4E0915A1CE77F0E947C290E94D2
:10107A007729A0916E1CB0916F1CEA0FFB1F0E948A
:10108A00F428EA17FB0719F4E0E0EB1508F0B1C001
:10109A000E947F290E943F31EF2FEF70F070EA879C
:1010AA00FB873197EA87FB87AA85BB851A9708F0E1
:1010BA00A0C0AEE5BDE00E9486290E948B29A2E865
:1010CA00BDE00E949529A6E8BDE00E948629EA0FA4
:1010DA00FB1FFF93EF93A6E8BDE00E9486290E94BA
:1010EA009E297F936F93FF93EF930E94A329AF9159
:1010FA00BF918F919F91662777270E9458310E944E
:10110A003030AF91BF910E944E310E94A329A09125
:10111A00AA0DB091AB0D8091AC0D9091AD0D6627E3
:10112A0077270E942B30E093AA0DF093AB0D6093C2
:10113A00AC0D7093AD0D0E947F290E943F31E09360
:10114A00721CF093731CAA85BB850E94AE29E081AC
:10115A00E03099F0AA85BB85EAE00E94A430E85401
:10116A00F54FDF01ED91FD913197FE93EE93AEEAD3
:10117A00BDE00E9486290E948B29E0912C0DF091F6
:10118A002D0D31978F0100240016010670F50E947B
:10119A00B4290E943F31EF2FEF70F070E887F9878A
:1011AA003197E887F987EA85FB85A885B985EA1723
:1011BA00FB07C1F40E94B4290E943F31E093741CDA
:1011CA00F093751C0E94B829A091721CB091731CEF
:1011DA00A083B183E091741CF091751CE093721C9A
:1011EA00F093731C01501040CECF0E947F290E94B9
:1011FA00C0290E9419290E94C529EA17FB0738F05D
:10120A00E0910E0FF0910F0F0E94CA2908F02AC030
:10121A0000E010E00630E0E01E07F0F4A02F0E9484
:10122A006503EC87FD87A8E2A09FF001A19FF00D5E
:10123A00E655F14EDF01E0919A1E0E940F28FF93B6
:10124A00EF93AC85BD850E94CE29AF91BF91ED93F6
:10125A00FC930F5F1F4FDECFE0919A1EEF5FE09382
:10126A009A1E32C00E941929A0910E0FB0910F0F39
:10127A00EA17FB0738F0E091A81EF091A91E0E9418
:10128A00CA2908F00BC0A0910E0F0E94DF2967D46B
:10129A00553018F0E0E0E0939A1E16C00E94192912
:1012AA00A091160FB091170FEA17FB0738F0E091DB
:1012BA00180FF091190F0E94CA2908F005C0A091D1
:1012CA00160F0E94DF29BED4A091000DB091010D26
:1012DA000E941929EA17FB0738F0E091120FF091E2
:1012EA00130F0E94CA2908F02AC000E010E0063055
:1012FA00E0E01E0700F5F801A0E1B4E10E94E5294B
:10130A00FF93EF93DF010E9443317F936F93FF9323
:10131A00EF93A02F0E94650366277727AF91BF91AD
:10132A008F919F910E942B30AF91BF910E944E31B5
:10133A000F5F1F4FDCCFE0919B1EEF5F41C00E9401
:10134A001929A091120FB091130FEA17FB0738F071
:10135A00E091140FF091150F0E94CA2908F032C0CB
:10136A00A091120FE091E20EEA1B5E2F0E94EA2979
:10137A000E94E529FF93EF93DF010E944331DF01C9
:10138A00CB01E0919B1EF0E00E94EF29AF91BF9143
:10139A000E944E31E52F0E94F429FF93EF930E9499
:1013AA00EA290E94F7290E94FA29AF91BF91ED9389
:1013BA00FC930E94EA290E94092A553018F0E0E0BD
:1013CA00E0939B1E0E941929A0911E0FB0911F0F36
:1013DA00EA17FB0749F4E1E0E0930C1CE091AA1F2D
:1013EA00E03011F40E9480130E94142A18F00E941F
:1013FA001C2A08F005C0A091200F0E94DF29DDD425
:10140A00A091020DB091030D0E941929EA17FB075A
:10141A0038F0E0911C0FF0911D0F0E94CA2908F0C4
:10142A006AC0A091991EA13009F065C0C09000A0C1
:10143A0000E010E00630E0E01E0780F4E02F0E9492
:10144A00212AAE85AC21EE85EA1729F40E94262AC4
:10145A00EC91EF5FEC930F5F1F4FECCFE0911C0F05
:10146A00F0911D0F31970E94F428EA17FB0709F043
:10147A0042C000E010E00630E0E01E07E0F5E02F91
:10148A000E94212A0E94262AAC91AB30B8F0E02FA4
:10149A000E942B2AA091AA1FA33079F4E091AC1FD5
:1014AA00E093CE00E091C800E072E1F3EAEFE09346
:1014BA00CE00E091C800E072E1F314C0A091AA1F27
:1014CA00A33081F40E94262AEC91E093CE00E091A9
:1014DA00C800E072E1F3EDEFE093CE00E091C800BE
:1014EA00E072E1F3A2EFBDE0A00FB11FE0E0EC93E0
:1014FA000F5F1F4FC0CF0E94B413F7C0E230A0E0C5
:10150A00FA0709F0E0C0E1E0E91519F40E94F928A8
:10151A000CF4CBC00E94342AFF93EF93AE2D0E94A5
:10152A006503AF91BF91ED93FC930E94342AFF9318
:10153A00EF930E943C2A0E94402A0E94FA29AF9106
:10154A00BF91ED93FC930E943C2A0E943F31DF0138
:10155A00E091E40EF091E50EEA17FB0740F40E94D1
:10156A003C2A0E943F31E093E40EF093E50EEE2D03
:10157A000E94212AC09000A0AE85AC21EE85EA1710
:10158A0031F40E942B2A0E94262AE0E0EC930E9462
:10159A00452AB0E0EE2D0E945630E170E13039F470
:1015AA000E943C2AED91FD91F068FE93EE93AE8580
:1015BA00AB21EE85EA1739F40E943C2AED91FD91A0
:1015CA00F064FE93EE93E091E60EF091E70EA0919F
:1015DA00E40EB091E50EEA17FB0710F4DD2009F0DE
:1015EA0013C0A8EEBEE00E944C2AA091E80EB0916A
:1015FA00E90E559748F0E1E0DE2EE0E0E093E80ED0
:10160A00E093E90E0E94522AE1E0ED1541F40E94AE
:10161A005B2A24F4E2E0DE2E0E94522A46C0E2E06F
:10162A00ED1531F50E945B2A14F59924AA24DD24CC
:10163A0020EB34E0E2E0E0932016F90132960E94B2
:10164A00652AE22FEE5F0E946A2AEE2DE65F0E946B
:10165A00702AE4E5FFE0FA93EA93D9010E94AF27E2
:10166A00F9010E94772A0E94852A0E94B5281DC086
:10167A00A0912814B091291480912A1490912B14C6
:10168A00A333E0E0BE07E0E08E07E0E09E076CF0DF
:10169A009924AA240E94902A0E946A2AEFEF0E94A3
:1016AA00982A0E94852A0E94B528A091971EA130E7
:1016BA0049F49924AA24E0E0E093971E0E94AF28F7
:1016CA00E093008812C0E430A0E0FA0771F40E94A7
:1016DA00142A18F00E941C2A08F005C0A091200FB5
:1016EA000E94DF296AD30E94B413E1E0E81531F4BD
:1016FA000E94F428A536E0E0BE0708F406C0882454
:10170A00E0915A1CEE7FE0935A1CA2EEBEE00E94C2
:10171A004C2A0E9414291EC0E7E0EA15D9F40E9457
:10172A00F4280E946F3140F4A2EEBEE0ED91FD91E3
:10173A003197FE93EE930AC00E941929309731F42B
:10174A00E7E6F1E0E093E20EF093E30E0E942C2923
:10175A000E9447290E947F312F96F3C10E94A72A2F
:10176A001A931091CE00E091FD1BF0E0309709F03A
:10177A003DC0123021F4E1E0E093FD1B36C0153A7A
:10178A00A1F5A091981EA130A9F40E94C4280E9434
:10179A008728E0934320E1E0E093971EA091AA1FD7
:1017AA00A13039F4E2EFE093CE00E091C800E07294
:1017BA00E1F31BC0E091981EE030B9F4E0E0E09359
:1017CA00031CE093971E0E94AF28E260E093E10EAB
:1017DA000E94B528A091AA1FA13039F4E3EFE09343
:1017EA00CE00E091C800E072E1F339C0E130A0E038
:1017FA00FA0751F4E12FF0E0E093131CF093141C64
:10180A00E2E0E093FD1B2BC0E230A0E0FA07B9F456
:10181A00A1E1BCE10E944C2A3197E45DFB4E1083A2
:10182A00E091111CF091121CA091131CB091141C90
:10183A00EA17FB0718F0E3E0E093FD1B10C0E33062
:10184A00A0E0FA0761F4133051F4E0E0E093FD1BE5
:10185A00E093111CE093121CE1E0E093FC1B199148
:10186A0026C00E94A72AE091FE1BE03001F1E09118
:10187A000D1CF0910E1CA0910F1CB091101CAE17FC
:10188A00BF0760F4AFE0BCE10E944C2A3197E05EEA
:10189A00F94EE081E093CE00E1E007C0E0E0E0939A
:1018AA00FE1BE0930F1CE093101CE0930C1CE991C3
:1018BA00EFBFF991E991B991A991189518950E94EC
:1018CA00D7282497E0E0E8830E94AE2A1A930A9365
:1018DA0000E010E0E0E00E945F28E091FF1B0E9418
:1018EA00B32A09F08DC0A091021C0E9465038F01E2
:1018FA00D8010E94CE290E94B82A0E942B30EA837E
:10190A00FB836C837D830E94C12AF0E00E94152824
:10191A000E94402A0E94C62A0E940F28FF93EF9332
:10192A00E091011CF0E03196AA81BB818C819D81F6
:10193A000E94EF29AF91BF91ED93FC930E94C12AB7
:10194A00F0E00E9415280E943F31E0934B1CF0936F
:10195A004C1C0E94D22A0E94402A0E94DC2A0E9421
:10196A00F02A0E94F62AAE17BF0780F00E94F02ADA
:10197A000E94F62AAE1BBF0BA093511CB093521CB7
:10198A00E0E0E0934F1CE093501C10C00E94F02A44
:10199A000E94F62AEA1BFB0BE093511CF093521C9F
:1019AA00E1E0F0E0E0934F1CF093501CE091511CF1
:1019BA00F091521C662777277F936F93FF93EF93DB
:1019CA000E94FD2AF0E00E9415280E943F31AF9143
:1019DA00BF918F919F910E94022BE0934D1CF0932F
:1019EA004E1CA0914D1CB0914E1C882799270E942D
:1019FA000F2BE0934D1CF0934E1C0E9498289EC01A
:101A0A00E230A0E0FA0709F08FC0E1E0EA1521F020
:101A1A00E4E0EA1509F087C0A5E1BCE10E944C2A7E
:101A2A00A0915B1CA13079F5A2E6BCE10E944C2A88
:101A3A00E091681CF0E0A091621CB091631C0E94C6
:101A4A000731309701F5E0915D1CEF5FE0935D1C73
:101A5A00E091671CA0915D1CEA02F001A0911E0DA5
:101A6A00AE1BA0935F1C0E948C28A0915D1CB0E065
:101A7A00E0E00E94BF28E0911E0DA0915D1CAE1708
:101A8A0010F00E947628A0915C1CA13009F040C099
:101A9A00A2EABFE10E944C2AE091A41FF091A51F7F
:101AAA00A091A21FB091A31FAE17BF0788F1A4E6A9
:101ABA00BCE10E944C2AE091691CF0E0A091641CF0
:101ACA00B091651C0E940731309711F5E0915E1CB8
:101ADA00EF5FE0935E1CE091671CA0915E1CEA0236
:101AEA00F001E0935F1C0E948C283A96A0915E1C3C
:101AFA00B0E0E0E00E94BF28E0911E0DA0915E1CBC
:101B0A00AE1730F00E94A2280E949128E093A61FE7
:101B1A00E091A61FE03019F40E94982804C00E94A0
:101B2A005B28E093FF1B0AC0E330A0E0FA0731F418
:101B3A000E941E2B0E945B28E093FF1B19810881DB
:101B4A002696E991EFBFF991E991B991A9919991F5
:101B5A00899179916991F990199009901895AA93A8
:101B6A0025970E94AE2AE0E0EC830E94783100E0DB
:101B7A0010E020E137E2EE83E0919A1EAE81AE17C3
:101B8A0010F50E94222B0E943F31E017F10720F046
:101B9A000E94222B0D911C910E94222B0E943F3100
:101BAA002E173F0720F00E94222B2D913C910E9474
:101BBA00222B0E94402A0E942C2B0E94312BEE815C
:101BCA00EF5FEE83D9CF0E94382BAF01E0E0EF83BD
:101BDA00E887E987EA87EE83E0919A1EAE81AE171D
:101BEA0068F50E94222B0E943F31E017F10718F492
:101BFA002E173F0760F0EB85A8E2EA9FF001E65551
:101C0A00F14EDF01EE810E940F28408351830E942A
:101C1A00222B0E94402A0E943D2BEB85A4E2BFE0C2
:101C2A000E940F28FF93EF930E94382BAF91BF9128
:101C3A00ED93FC93EE81EF5FEE83CECF0E947F316E
:101C4A002C960895AA930E947A310E943F2B0E94F3
:101C5A00442BF0E00E9415280E943F310E161F0601
:101C6A0028F00E943F2B0E94442B07C00E944A2B57
:101C7A000D901C90EC81A4E2BFE0F0E00E941528D0
:101C8A000E943F31D001AE1BBF0B8D01EC81ACE944
:101C9A00BEE10E940F280F010E944A2B0E944F2B7F
:101CAA00662777277F936F93FF93EF93EC81A8E4DE
:101CBA00BFE0F0E00E9415280E943F31AF91BF912A
:101CCA008F919F910E94022B9F01D9010E94773028
:101CDA000E940F2B9F01A091AA1FA23009F047C0B2
:101CEA000E943F2B0E94562BE091C800E072E1F35C
:101CFA000E943F2BEC91E093CE00E091C800E07285
:101D0A00E1F30E944A2B0E94562BE091C800E07230
:101D1A00E1F30E944A2BEC91E093CE00E091C800D7
:101D2A00E072E1F3EDEDE093CE00E091C800E072DD
:101D3A00E1F3F9010E945D2BE091C800E072E1F342
:101D4A002093CE00E091C800E072E1F3EEEDE0935B
:101D5A00CE00E091C800E072E1F3AC81A53039F41D
:101D6A00EFEDE093CE00E091C800E072E1F30E944B
:101D7A003F2B0E94442BF0E00E9415280E943F311D
:101D8A000E161F0640F0EC81A4E0B4E10E940F2871
:101D9A00208331830EC0EC81A4E0B4E10E940F28B5
:101DAA00BF01F901AFEFBFEF0E94AA30DB01ED934B
:101DBA00FC930E94813125960895AA93679786E13C
:101DCA00A1E0B0E0E2EBF2E00E9486310E947831B5
:101DDA001FEF00E040E050E00E94622B7496EB8710
:101DEA00FC870E94672B7496ED87FE870E946C2BF6
:101DFA007496EF87F88B0E94712B7496E98BFA8B95
:101E0A000E94762B7496EB8BFC8B0E947B2B74962C
:101E1A00ED8BFE8BE1E0EA1529F4ED8DA4E0B4E147
:101E2A00F0E040C0E4E0EA1509F042C0332019F5B9
:101E3A00ED8DE030E9F4E5E0E61539F4E1E0E09310
:101E4A00AC1FE0E0E093F80D12C0E6E0E61539F4C5
:101E5A00E4E6E093F80DE0E0E093AC1F08C0E62D5D
:101E6A00F0E0DE011B960E9415282D913C9102C0DC
:101E7A002AE030E01DC0E1E0E315D1F4E5E0E61523
:101E8A0029F40E94802BE093AC1F12C0E6E0E6150D
:101E9A0029F40E94852BA4E6A0830AC0E62DF0E06F
:101EAA00DE011B96EE0FFF1FAE0FBF1F2D913C9157
:101EBA00ED8DAEE2BDE0F0E00E94E5290F01ED8D67
:101ECA00A4E0B4E1F0E00E9415280E943F31D0015D
:101EDA000E9472300E944E310E94452AED8D0E9466
:101EEA004E30E170EE83A091AA1FA33081F5E091F4
:101EFA00AC1FE093CE00E091C800E072E1F3E091FC
:101F0A00AD1FE093CE00E091C800E072E1F3E091EA
:101F1A00AE1FE093CE00E091C800E072E1F3E091D9
:101F2A00AF1FE093CE00E091C800E072E1F30E9497
:101F3A008A2BE081E093CE00E091C800E072E1F3E1
:101F4A00EBEFE093CE00E091C800E072E1F3AE81DE
:101F5A00A03029F40E94852BA081A63008F023C264
:101F6A00A6E4BDE0ED8DF0E00E94092A0E948A2BCA
:101F7A00BF0110800E94802BE095E121DB01EC93E8
:101F8A000E94852BA0E0A0830E94902BECF018E021
:101F9A00AEE7BDE00E9495290E94972BA1F00E940E
:101FAA00B02B34F0E091060BF091070B309749F40F
:101FBA00A8E0BBE00E944C2AAEECBDE00E94952945
:101FCA0002C00E94BB2BEEC10E94902B2CF40E94EF
:101FDA00622B2E173F070CF443C010E0AEE5BDE0BC
:101FEA000E949529A091860DB091870D8091880D48
:101FFA009091890D0E94C52BE093860DF093870D71
:10200A006093880D7093890DE091B50AE03039F13B
:10201A00A091B80AB091B90AE091B60AF091B70A4C
:10202A00AE17BF0734F0A091B60AB091B70A10975D
:10203A0049F4A8EBBAE00E944C2AAEEABDE00E943D
:10204A0095290DC0E091B50AE0938E1EE0E0E09379
:10205A00B50AE0E0F0E0E093B80AF093B90AA2C149
:10206A000E94622B2E173F072CF40E94672B2E1713
:10207A003F070CF441C011E0A2E6BDE00E94952999
:10208A00A0918A0DB0918B0D80918C0D90918D0D40
:10209A000E94C52BE0938A0DF0938B0D60938C0DF3
:1020AA0070938D0DE091BF0AE03029F1A091C20A28
:1020BA00B091C30AE091C00AF091C10AAE17BF07F6
:1020CA0034F0E091C00AF091C10A309749F4A2ECC9
:1020DA00BAE00E944C2AA2EBBDE00E9495290BC0EF
:1020EA00E091BF0AE0938F1EE0E0E093BF0AE2ECC2
:1020FA00FAE00E94D42756C10E94672B2E173F0789
:10210A002CF40E946C2B2E173F070CF441C012E0EE
:10211A00A6E6BDE00E949529A0918E0DB0918F0D83
:10212A008091900D9091910D0E94C52BE0938E0D98
:10213A00F0938F0D6093900D7093910DE091C90A01
:10214A00E03029F1A091CC0AB091CD0AE091CA0AF7
:10215A00F091CB0AAE17BF0734F0E091CA0AF091AA
:10216A00CB0A309749F4ACECBAE00E944C2AA6EBB1
:10217A00BDE00E9495290BC0E091C90AE093901E28
:10218A00E0E0E093C90AECECFAE00E94D4270AC125
:10219A000E946C2B2E173F072CF40E94712B2E17CE
:1021AA003F070CF441C013E0AAE6BDE00E9495295E
:1021BA00A091920DB091930D8091940D9091950DEF
:1021CA000E94C52BE093920DF093930D6093940DAA
:1021DA007093950DE091D30AE03029F1A091D60AC7
:1021EA00B091D70AE091D40AF091D50AAE17BF0789
:1021FA0034F0E091D40AF091D50A309749F4A6ED6B
:10220A00BAE00E944C2AAAEBBDE00E9495290BC0B5
:10221A00E091D30AE093911EE0E0E093D30AE6ED61
:10222A00FAE00E94D427BEC00E94712B2E173F07E6
:10223A002CF40E94762B2E173F070CF441C014E0B1
:10224A00AEE6BDE00E949529A091960DB091970D3A
:10225A008091980D9091990D0E94C52BE093960D4F
:10226A00F093970D6093980D7093990DE091DD0AA4
:10227A00E03029F1A091E00AB091E10AE091DE0A8A
:10228A00F091DF0AAE17BF0734F0E091DE0AF09151
:10229A00DF0A309749F4A0EEBAE00E944C2AAEEB6E
:1022AA00BDE00E9495290BC0E091DD0AE093921EE1
:1022BA00E0E0E093DD0AE0EEFAE00E94D42772C083
:1022CA000E94762B2E173F072CF40E947B2B2E1789
:1022DA003F070CF441C015E0A2E7BDE00E94952932
:1022EA00A0919A0DB0919B0D80919C0D90919D0D9E
:1022FA000E94C52BE0939A0DF0939B0D60939C0D61
:10230A0070939D0DE091E70AE03029F1A091EA0A65
:10231A00B091EB0AE091E80AF091E90AAE17BF071B
:10232A0034F0E091E80AF091E90A309749F4AAEE0C
:10233A00BAE00E944C2AA2ECBDE00E9495290BC08B
:10234A00E091E70AE093931EE0E0E093E70AEAEE01
:10235A00FAE00E94D42726C00E947B2B2E173F0743
:10236A0024F42436E0E03E070CF41CC018E0AEE783
:10237A00BDE00E9495290E94972BA1F00E94B02BE4
:10238A0034F0E091060BF091070B309749F4A8E07E
:10239A00BBE00E944C2AAEECBDE00E94952902C027
:1023AA000E94BB2B85C00E94852BA0810E94452AD2
:1023BA00ED8D0E944E30E170EE83AE81A13009F0BE
:1023CA0077C0A091AA1FA330E9F4F9010E945D2BFE
:1023DA00E091C800E072E1F32093CE00E091C800DA
:1023EA00E072E1F30E948A2BE081E093CE00E09153
:1023FA00C800E072E1F3EEEFE093CE00E091C8008E
:10240A00E072E1F316E0A6E4BDE0ED8DF0E00E9493
:10241A00CB2BE1E0F0E060E070E00E944E31A6E7ED
:10242A00BDE00E949529A0919E0DB0919F0D8091CB
:10243A00A00D9091A10D0E94C52BE0939E0DF093E3
:10244A009F0D6093A00D7093A10DE091F10AE03009
:10245A0029F1A091F40AB091F50AE091F20AF091FB
:10246A00F30AAE17BF0734F0E091F20AF091F30ACB
:10247A00309749F4A4EFBAE00E944C2AA6ECBDE0DA
:10248A000E9495290BC0E091F10AE093941EE0E0C6
:10249A00E093F10AE4EFFAE00E94D4270E948A2B23
:1024AA00BF0110800E94802BE095E121DB01EC93B3
:1024BA001F3F09F41CC1A6EDBDE00E949529A09119
:1024CA00DA0DB091DB0D8091DC0D9091DD0D0E944B
:1024DA00C52B0E94D02BED8DF0E0A6E0B0E00E9463
:1024EA005E31EA1BFB0B31960E94D92B2083318384
:1024FA0040E050E00E94E02B0E94F7290E946531DB
:10250A00ACF00E94E02B0E94092A0E94E02B0E9454
:10251A00F7297F936F93FF93EF930E94E52BAF9177
:10252A00BF918F919F910E94ED2B8CC0A091442066
:10253A00A93009F464C0E09144201E1798F40E945F
:10254A00E02B0E94F7290E94F32B7F936F93FF934E
:10255A00EF930E94E52BAF91BF918F919F910E94BB
:10256A00ED2B4CC0E0E0EF83E887E987EA8700912A
:10257A004420093050F4AEE5BDE0E02FF0E00E94BF
:10258A00F7290E943D2B0F5FF4CFA0914420A83079
:10259A0051F4E091760DF091770D6091780D70917C
:1025AA00790D0E943D2BEF81F88569857A850E9415
:1025BA00F32BDF01CB01E091F00AF0E00E94ED2B52
:1025CA00A091AA1FA330D1F41093CE00E091C800C5
:1025DA00E072E1F3FA010E945D2BE091C800E0721B
:1025EA00E1F34093CE00E091C800E072E1F3EFED31
:1025FA00E093CE00E091C800E072E1F323C00E94AC
:10260A00E02B0E94F7290E94F32B7F936F93FF938D
:10261A00EF930E94E52BAF91BF918F919F910E94FA
:10262A00ED2BA091AA1FA33069F44093CE00E0914C
:10263A00C800E072E1F3ECEDE093CE00E091C8004F
:10264A00E072E1F3A0914420A93049F0E0914420DE
:10265A001E1718F40E94F82B01C0576002C00E948E
:10266A00F82BA0916B1CA13039F40E94CE27A081CF
:10267A00A13008F0506111C0E0916B1CE03069F4A0
:10268A000E94CE27A081A13011F4506106C00E9499
:10269A00CE27A081A23009F45062ED8DF0E0A6E0C9
:1026AA00B0E0AE1BBF0BE1E0F0E00E945E31EA1B36
:1026BA00FB0BA0E0B6E00E94002C40835183A0915E
:1026CA00AA1FA330A1F4FA010E945D2BE091C80071
:1026DA00E072E1F34093CE00E091C800E072E1F3CA
:1026EA00EBEDE093CE00E091C800E072E1F30E94C6
:1026FA007F316E9608951A930A93A6EEBDE0E09193
:10270A00151CF091161C662777270E944E310E94ED
:10271A00E5280E94052C0E940F2C04EC10E0E2E050
:10272A00E0932016F80132960E94652AE02FEE5FA8
:10273A00E0932216E0EAE0932316E0E00E94702A72
:10274A00EEE2FDE0FA93EA93D8010E94AF27F8017E
:10275A000E94772AF80136960E94142CA6C10E947C
:10276A007A3110E0193008F0E5C000E0063008F0D0
:10277A00C4C00E941D2CAC91A03A09F076C00E94F8
:10278A00232CEC91EF5FEC93A091A91FA13009F0E3
:10279A0041C00E94232C2C910E94EF270E94292CD1
:1027AA00DF01E0915F1CF0E0EA0FFB1F0E942E2C74
:1027BA0084F1A091AA1FA13079F4E0915F1CE09303
:1027CA00CE00E091C800E072E1F3EEEEE093CE00B5
:1027DA00E091C800E072E1F30E94232C0E94332C9E
:1027EA00E1E0EC930E941D2CEAE0EC930E941A2887
:1027FA000E943A2C31F40E94452CE1E0F0E0ED937E
:10280A00FC930E944A2C0E94D927EC91E22BDB010F
:10281A00EC932BC0E091A91FE03039F50E94232CDC
:10282A002C910E94EF270E94292C0E942E2CECF05A
:10283A000E94232C0E94332CE1E0EC930E941D2C71
:10284A00EAE0EC930E941A280E943A2C31F40E9482
:10285A00452CE1E0F0E0ED93FC930E944A2C0E94A3
:10286A00D927EC91E22BDB01EC93A6E01A9FF00149
:10287A00EE55F14F0E94D927EC91E030E1F10E9428
:10288A00512CEC91EF5FEC930E94512C2C91A0E318
:10289A001A9FF0010E9407280E94292C0E942E2CC0
:1028AA0054F10E944A2C0E94D927EC91E095E22328
:1028BA00DB01EC930E94512C0E94332CEC930E9472
:1028CA001A280E943A2CB9F40E94452C0E943F31E2
:1028DA00E130A0E0FA0779F40E94572C0E94C0293F
:1028EA000E94452CE2E0F0E0ED93FC93A12F0E94B8
:1028FA005C2CE068EC930F5F39CF0E94452C0E9454
:10290A003F31E230A0E0FA0799F40E94572C0E9466
:10291A004C2A0E94572C0E943F313B9748F0A12F26
:10292A000E945C2CEF77EC930E94452C0E94C029F0
:10293A001F5F18CFA0916B1CA13019F5A091FE0D55
:10294A00A03A61F40E94612C4CF00E94702CE09134
:10295A004520A091E10EEA2BE093E10EA091541CD0
:10296A00A13071F40E947F2C5CF00E948E2CE091C1
:10297A0045200E94972CE093E10EE0E0E093541C7E
:10298A0059C0E0916B1CE03009F054C0A091FE0DD3
:10299A00A03A29F40E94612C14F00E94702CA09194
:1029AA00541CA13041F40E947F2C2CF00E948E2CE2
:1029BA00E0E0E093541CA091FF0DA03AE9F4E09105
:1029CA00561CEF5FE093561CE091140DF091150D23
:1029DA00A091561CB0E0AE17BF0774F0E0E0E09398
:1029EA00561CEAE0E093FF0DE1E0E093571CE0910A
:1029FA00E10EE062E093E10EA091571CA130D1F400
:102A0A00E091581CEF5FE093581CE091160DF0918D
:102A1A00170DA091581CB0E0AE17BF075CF0E0E0BC
:102A2A00E093581CE091E10EEF7DE093E10EE0E0C7
:102A3A00E093571C0E949C2C0E94A12C0E94A62C59
:102A4A000E94AB2C0E94B02C0E94B52C0E94BA2C7A
:102A5A000E94BF2C08C11A930A930CE211E01123B9
:102A6A0022F1002E012A99F00E94B8290F01F801DB
:102A7A000E94C42C0E944F2B0E94D92B0F01F801EF
:102A8A0031970E94C82C0E943F31D00109C00E9490
:102A9A00B4290E94C029F8010E94C82CE0E0F0E0A5
:102AAA00ED93FC9301501040DACF099119910895E2
:102ABA000E947A31A0916B1CA13039F50E94CB2C6F
:102ACA000E94D22C0E94CB2C0E94DB2CEF700E2F7E
:102ADA00E1E0F0E0E217F307B9F4E0EAE093FE0D73
:102AEA00E02FF0E03197AAE0B0E00E947C30EB548E
:102AFA00F54FE081F0E0EA5BFF4DE081E09345208D
:102B0A000E94CB2C0E94E02C24C0E0916B1CE03088
:102B1A0001F50E94CB2C0E94D22CE1E0F0E0E217F2
:102B2A00F30739F4E0EAE093FE0D0E94CB2C0E94F1
:102B3A00E02C0E94E62C0E94D22CE2E0F0E0E217A0
:102B4A00F30739F4E0EAE093FF0D0E94E62C0E94B5
:102B5A00E02C10E0193008F086C00E941A280E9462
:102B6A00ED2C0E94F62CE85CF44F0E94FE2C59F4DE
:102B7A00A6E01A9FF001EB5FF14F0E94042D0E941C
:102B8A00ED2C0E94C0290E941A280E94072D0E943B
:102B9A00F62CEA5CF44F0E94FE2C59F4A6E01A9F28
:102BAA00F001EC5FF14F0E94042D0E94072D0E9454
:102BBA00C0290E941A280E94102D0E94F62CEC5C53
:102BCA00F44F0E94FE2C59F4A6E01A9FF001ED5F23
:102BDA00F14F0E94042D0E94102D0E94C0290E94CC
:102BEA001A280E94192D0E94F62CEE5CF44F0E94BE
:102BFA00FE2C59F4A6E01A9FF001EE5FF14F0E94F5
:102C0A00042D0E94192D0E94C0290E941A280E9490
:102C1A00222D0E94F62CE05DF44F0E94FE2C59F4FE
:102C2A00A6E01A9FF001EF5FF14F0E94042D0E9467
:102C3A00222D0E94C0290E941A280E94282D0E9433
:102C4A00F62CE25DF44F0E94FE2C59F4A6E01A9F7E
:102C5A00F001E050F24F0E94042D0E94282D0E949C
:102C6A00C0291F5F77CF0E948131249608952C973F
:102C7A008CE0A0E0B0E0E8ECF2E00E9486311A9322
:102C8A00ABE0B0E00E946804ACE0B0E00E946804E7
:102C9A00ADE0B0E00E946804AEE0B0E00E946804D3
:102CAA00AFE0B0E00E946804A0E1B0E00E946804CE
:102CBA00A1E1B0E00E946804A3E1B0E00E946804C8
:102CCA0010E01630B0F50E942128DF010E943F3142
:102CDA00309721F0EF3FA0E0FA07D9F4E12FA8E4FA
:102CEA00BFE00E940F280F01E12FF0E0DE011196EC
:102CFA000E9415280E94312D0E9421280F01E12FE0
:102D0A00A8E4BFE0F0E00E9415280E943F31D001FC
:102D1A000CC0E12FA8E4BFE00E940F28BF010E9467
:102D2A002128DF010E943F31DB01ED93FC931F5FF5
:102D3A00C8CF0E94372DA836E1E0BE0731F40E94C1
:102D4A00372DA835E2E0BE0759F0ECE3E093250DF4
:102D5A00ECE3F0E0E093230DF093240D0E94542855
:102D6A00A091B00AB091B10AA632E2E0BE0714F40B
:102D7A000E943C2D18812D960895E091FE0CF09149
:102D8A00FF0C0E94C529EA0FFB1FE0930E0FF09378
:102D9A000F0F3696E093100FF093110FE091000D8C
:102DAA00F091010D3A96E093120FF093130F3696B5
:102DBA00E093140FF093150FE091100FF091110F9B
:102DCA003696E093A81EF093A91E3296E093160F4A
:102DDA00F093170F3696E093180FF093190FE4E566
:102DEA00F1E0E093200FF093210F3696E0931A0F4B
:102DFA00F0931B0F0E94462D7E96E0931C0FF093D2
:102E0A001D0FA0911E0DE0911E0D0E94B430E0939B
:102E1A00671CE0911E0DF0E0A0911A0DB0911B0DF8
:102E2A000E944B2DE093681CA0911C0DB0911D0DC2
:102E3A00E0911E0DF0E00E944B2DE093691CA091D9
:102E4A00290DB0912A0DE5E0F0E00E94D530E0931B
:102E5A00A41FF093A51FE091270DF091280DE09390
:102E6A009E1FF0939F1F0E94462D309719F4E0E0B1
:102E7A00E093991E089522970E947831E0E0EE834C
:102E8A00EF83AE81BF81AC32E1E0BE0798F4EE81F8
:102E9A00FF81A0E0B6E00E9415280E94C029E12F18
:102EAA00A8E5B8E0F0E00E9415280E94C0290E9417
:102EBA00542DE7CF0E949F030E94B8030E2F0030C3
:102ECA0041F0D5DEA091260DA33111F00E94D60162
:102EDA0002C00E94D60151DFA0E04F9BA1E0EA2F79
:102EEA00EE0FAE2FE0E04E9BE1E0EA2B3E2F3030B2
:102EFA0011F0323011F4E1E001C0E2E0E093591C34
:102F0A00323011F0333019F4E1E04E2E01C044247E
:102F1A00E091DA0CE0934420E09100A0E0782E2FB3
:102F2A00203011F4552404C0203811F4E1E05E2E5B
:102F3A0050E0563008F05FC00E945A2D10E0103F52
:102F4A00F0F5E091011C1E1788F00E94C12AF0E0FA
:102F5A000E9415280E946A2D0E943530A093171CE2
:102F6A00B093181C8093191C90931A1C0E94C12AB2
:102F7A000E940F28FF93EF93A52F0E946503AF913C
:102F8A00BF91ED93FC930E94D22A0E94402A0E948C
:102F9A00DC2AE52FACE3BFE00E940F28FF93EF93F2
:102FAA00E091011CF0E00E94B82A0E94EF290E94D9
:102FBA00FA29AF91BF91ED93FC931F5FC0CFE52F24
:102FCA000E94F4290F01E52FACE3BFE0F0E00E9474
:102FDA0015280E94312DE52FACE9BEE10E940F2889
:102FEA000F01E52FA0E3BFE0F0E00E9415280E9440
:102FFA00312D5F5F9ECF0E94702DA6E9B0E00E943E
:10300A0021300E941E2BA0E5B0E00E94213010E082
:10301A00113060F40E94702D0E94742D0E941E2BA4
:10302A00A0E5B0E00E9421301F5FF2CFE0915A1C68
:10303A00E0640E947C29E091E10EE2600E94D228BD
:10304A0078940E947F31289608950E94702DE3E0BB
:10305A000E94782DECE0E0938900E5E30E947C2D44
:10306A00089528970E94783111E00E94902AE093EF
:10307A002216E0EF0E94822D0E94862DE0E0E09366
:10308A00FC1B40E050E04630E0E05E0708F072C00A
:10309A000E945A2D20E030E0203FE0E03E0708F091
:1030AA0066C0A42F0E946503EA87FB87022E032AC3
:1030BA00B1F4E0E0EC87ED870E94892D80F40E944C
:1030CA00912DAA85BB85A083B1830E94962D0E946B
:1030DA009E2DEC85FD853196EC87FD87EDCF0E940C
:1030EA00962DEE83FF83688779870E94C12AF0E0D4
:1030FA000E9415280E94402A0E94C62A0E940F2870
:10310A00FF93EF93E091011CF0E03196AE81BF810D
:10311A00888599850E94EF29AF91BF91ED93FC9321
:10312A00FA01A0E3BFE00E94002CFF93EF930E94F4
:10313A00C12AF0E00E9415280E94402A0E94FA291A
:10314A00AF91BF91ED93FC930E94D22A0E946A2DFF
:10315A000E942B300E949E2DE091011CA091001C20
:10316A000E940431E093001C2F5F3F4F95CF4F5FC1
:10317A005F4F89CF0E94A72D103009F44CC1E0910E
:10318A00FC1BE03009F446C1E0912C14F0E0E13F69
:10319A00A0E0FA0709F050C0E0E0E09381000E9445
:1031AA00902AE0932216E1EF0E94822D0E94862D3A
:1031BA00E091FE1BE030E1F70E94A72D0E94CA2889
:1031CA000E945B28E093171CE093181CE093191CDB
:1031DA00E0931A1CE0E0E093001CE0912D14E093C8
:1031EA00021CE0E0EC87ED870E94892DD8F40E944A
:1031FA00912D0F010E94F02A0E94312DEC85FD8548
:10320A00ABE1BCE10E9415280E94402A0E94B82A1C
:10321A000E942B300E949E2DEC85FD853196EC870D
:10322A00FD87E2CFE1E00E94782DE1E0E09389009A
:10323A00E8E30E947C2DEBC0E33FA0E0FA07A9F483
:10324A00E0E00E945F28E0E0E0938100FEDE0E9459
:10325A0026290E94AD2D0E94902AE0932216E3EFC0
:10326A000E94822D0E94862DD2C0E23FA0E0FA077A
:10327A0009F03FC0E0E0E09381000E94B12D89F49B
:10328A000E94FD2A0E940F28BF01A0912F140E94BC
:10329A00B42DDF01E0913014F0E0EA0FFB1FDB01EF
:1032AA000BC0E230A0E0FA07E1F40E94FD2AF0E048
:1032BA000E941528E8EEF3E0ED93FC93E091021CDE
:1032CA00A5E0EA9FF001E152F34F0F010E94FD2AA7
:1032DA00F0E00E9415280E94312DAEE0B0E00E9475
:1032EA00D4040E94A72DE1E00E94782D0E94BA2DF5
:1032FA008EC0ED3FA0E0FA0709F04FC00E94BF2D33
:10330A00EBE0E0932216EDEFE0932316E091021C26
:10331A00E0932416E0914F1CE0932516E0914C1C93
:10332A00E0932616E0914B1CE0932716E0914E1C81
:10333A00E0932816E0914D1CE09329160E94F02A8A
:10334A000E94DB2CE0932A160E94F02AEC91E0936B
:10335A002B160E94FD2AF0E00E9415280E94DB2C01
:10336A00E0932C160E94FD2AF0E00E941528EC91A9
:10337A00E0932D16E3E0E0932E16E1E0E093FE1BC6
:10338A00EFE0F0E0E0930D1CF0930E1C0E94C62DB6
:10339A00E0912016E093CE003AC0EE3FA0E0FA0793
:1033AA0011F5E0912D140E94F429A0914B1CB091C3
:1033BA004C1CA083B183E0912D14ACE3BFE00E94C2
:1033CA000F280F01E0912D14A0E3BFE0F0E00E9466
:1033DA0015280E94312D0E94A72DE1E00E94782D28
:1033EA000E94BA2D14C0E43FA0E0FA0781F40E94BB
:1033FA00902AE0932216E4EF0E94822D0E94862DE5
:10340A000E945B28E093FF1B0E94A72D10E0E0E0DA
:10341A00E093FC1BB1CE19DE0E947F312E960895EF
:10342A00AA931A930A93AD81AF3F09F02DC1AC81DB
:10343A00AA3009F0DDC000E0063008F071C0E02FC4
:10344A00A1E00E9446301E2FAA810E945C2CE12B2B
:10345A000E94CD2D19F40E949C2C29C0E130A0E0D5
:10346A00FA0719F40E94A12C22C0E230A0E0FA0760
:10347A0019F40E94A62C1BC0E330A0E0FA0719F445
:10348A000E94AB2C14C0E430A0E0FA0719F40E94A1
:10349A00B02C0DC0E530A0E0FA0719F40E94B52C53
:1034AA0006C0E630A0E0FA0711F40E94BA2C0E9486
:1034BA00702D0E94AD2D0E94D22D19F40E949C2CD1
:1034CA0029C0E130A0E0FA0719F40E94A12C22C019
:1034DA00E230A0E0FA0719F40E94A62C1BC0E330E0
:1034EA00A0E0FA0719F40E94AB2C14C0E430A0E063
:1034FA00FA0719F40E94B02C0DC0E530A0E0FA07D3
:10350A0019F40E94B52C06C0E630A0E0FA0711F4BF
:10351A000E94BA2C0E941E2B0E94AD2D0F5F8CCFE9
:10352A0010E8AA810E945C2CE12B0E94CD2D19F48F
:10353A000E949C2C29C0E130A0E0FA0719F40E94ED
:10354A00A12C22C0E230A0E0FA0719F40E94A62CAE
:10355A001BC0E330A0E0FA0719F40E94AB2C14C098
:10356A00E430A0E0FA0719F40E94B02C0DC0E5304F
:10357A00A0E0FA0719F40E94B52C06C0E630A0E0D4
:10358A00FA0711F40E94BA2C0E94AD2D0E94D22D86
:10359A0019F40E949C2C29C0E130A0E0FA0719F422
:1035AA000E94A12C22C0E230A0E0FA0719F40E947E
:1035BA00A62C1BC0E330A0E0FA0719F40E94AB2C3A
:1035CA0014C0E430A0E0FA0719F40E94B02C0DC030
:1035DA00E530A0E0FA0719F40E94B52C06C0E630DF
:1035EA00A0E0FA0711F40E94BA2C0E94AD2D4BC03C
:1035FA00EC81A1E00E9446301E2FAB81A13029F454
:10360A00AA810E945C2CE12B0DC0EB81E03059F4B9
:10361A00EA81F0E0E852F14F0F01A081E12FE09535
:10362A00EA23D001EC93EA81F0E0309719F40E9482
:10363A009C2C29C0E130A0E0FA0719F40E94A12CC1
:10364A0022C0E230A0E0FA0719F40E94A62C1BC09F
:10365A00E330A0E0FA0719F40E94AB2C14C0E4305E
:10366A00A0E0FA0719F40E94B02C0DC0E530A0E0E2
:10367A00FA0719F40E94B52C06C0E630A0E0FA0752
:10368A0011F40E94BA2CEDC0AD81A23091F4AB8145
:10369A00A13021F4E091E10EE06106C0EB81E03057
:1036AA0039F4E091E10EEF7EE093E10E0E94BF2C27
:1036BA00D8C0AD81A33091F4AB81A13021F4E0915F
:1036CA00E10EE06206C0EB81E03039F4E091E10EF0
:1036DA00EF7DE093E10E0E94BF2CC3C0AD81A03103
:1036EA00C9F4AB81A13041F40E94DD2DE09147205D
:1036FA00A091E10EEA2B09C0EB81E03051F40E945F
:10370A00E32DE09147200E94972CE093E10E0E945E
:10371A00BF2CA7C0AD81A032C9F4AB81A13041F45E
:10372A000E94DD2DE0914820A091E10EEA2B09C00C
:10373A00EB81E03051F40E94E32DE09148200E9491
:10374A00972CE093E10E0E94BF2C8BC0AD81A03371
:10375A00C9F4AB81A13041F40E94DD2DE0914920EA
:10376A00A091E10EEA2B09C0EB81E03051F40E94EE
:10377A00E32DE09149200E94972CE093E10E0E94EC
:10378A00BF2C6FC0AD81A034C9F4AB81A13041F424
:10379A000E94DD2DE0914A20A091E10EEA2B09C09A
:1037AA00EB81E03051F40E94E32DE0914A200E941F
:1037BA00972CE093E10E0E94BF2C53C0AD81A03537
:1037CA00C9F4AB81A13041F40E94DD2DE0914B2078
:1037DA00A091E10EEA2B09C0EB81E03051F40E947E
:1037EA00E32DE0914B200E94972CE093E10E0E947A
:1037FA00BF2C37C0AD81A036C9F4AB81A13041F4EA
:10380A000E94DD2DE0914C20A091E10EEA2B09C027
:10381A00EB81E03051F40E94E32DE0914C200E94AC
:10382A00972CE093E10E0E94BF2C1BC0AD81A037FC
:10383A00C1F4AB81A13041F40E94DD2DE0914D200D
:10384A00A091E10EEA2B09C0EB81E03051F40E940D
:10385A00E32DE0914D200E94972CE093E10E0E9407
:10386A00BF2C19810881269608951A930A9300E0BD
:10387A0010E00C32E1E01E0738F40E94B4290E94DD
:10388A00C0290F5F1F4FF5CF00E010E00C32E1E0D6
:10389A001E0740F4F8010E94C82C0E94C0290F5F3D
:1038AA001F4FF4CF00E010E00A30E0E01E0790F46A
:1038BA00AEE5BDE0F8010E94092AA6E8BDE0F801DC
:1038CA000E94092AAEEABDE0F8010E94092A0F5FA8
:1038DA001F4FEACF00E010E00930E0E01E0760F475
:1038EA00AAE0A09FF001A19FF00DE854F54F0E94B5
:1038FA00D4270F5F1F4FF0CF0E94E92DE093D60D1A
:10390A00F093D70D6093D80D7093D90D0E94E92DCD
:10391A000E94D02B0E94E92DE093E60DF093E70D6B
:10392A006093E80D7093E90D0E94E92D0E94052C21
:10393A000E94EE2DE093701CE093711CE0E00E945F
:10394A000F2C0991199108952A97E0E0E883E983F9
:10395A0031E00E941E030E940603E0E0E093008922
:10396A00E093008AE093008BE093008CE093008D53
:10397A00E093008EE093008FE0930088E09300903C
:10398A00A0EDB7E00E942130E0E0EE83EF83AE8144
:10399A00BF81989790F5EE81FF81E170A1F4E0E490
:1039AA000E94F82DE0E20E94F82DE0E10E94F82D35
:1039BA00E8E00E94F82DE4E00E94F82DE2E00E947F
:1039CA00F82DE1E013C0E1E00E94F82DE2E00E9448
:1039DA00F82DE4E00E94F82DE8E00E94F82DE0E1DD
:1039EA000E94F82DE0E20E94F82DE0E4E0930090B6
:1039FA000E94742D0E94542DCACF0E9414293BDACA
:103A0A00A2E1B0E00E946804E1E0E41581F4E0E09C
:103A1A000E940F2C0E94CA280E94A72DE1E0AE2E18
:103A2A00E2E00E94FB2D0E9498283030F1F7AA208C
:103A3A0059F0E1E0EA1541F0E4E0EA1529F0E7E09F
:103A4A00EA1511F00C94AC27E091FC1BE03011F45C
:103A5A000C94AC27E0912C14E07F1E2FE0912C14DB
:103A6A00EF700E2FE0912C14F0E0E031A0E0FA079D
:103A7A0009F0A8C10E94B12D21F0E230A0E0FA07B6
:103A8A0009F404C0E330A0E0FA0709F405C0E43001
:103A9A00A0E0FA0709F041C0A0912D14A13059F411
:103AAA00E0E0E093AA1FE0916B1CE03019F0E0E03F
:103ABA000E94012E1CC0A0912D14A23059F4E0E0FE
:103ACA00E093AA1FA0916B1CA13019F0E1E00E94BB
:103ADA00012E0DC0A0912D14A33011F4E2E005C00F
:103AEA00A0912D14A43031F4E3E0E093AA1FE0E0A2
:103AFA00E0936C1CE0E00E940F2C0E94902A0E9426
:103B0A006A2AE1E00E94982A0E94862D0E94CA2809
:103B1A000E94A72DE1E0AE2E4EC1E031A0E0FA07E7
:103B2A0049F40E94A72DE0E0E093611CE1E0E093F4
:103B3A00601C46C1EA30A0E0FA0721F0EB30A0E0B1
:103B4A00FA0709F404C0EC30A0E0FA0709F404C04B
:103B5A00ED30A0E0FA0709F404C0EE30A0E0FA075D
:103B6A0009F405C0EF30A0E0FA0709F044C00E944A
:103B7A00CA280E94902A0E946A2AE0912D140E9463
:103B8A00982A0E94862D0E94A72DE0E0E887E987FF
:103B9A00A885B985A835E2E0BE0758F4E885F98515
:103BAA00A4E5BFE00E9415280E94C0290E94072EA2
:103BBA00EFCFE1E0E0936C1CE2E0AE2EE0912D1431
:103BCA00EA50EE2EE0E0E093220FE093230F0E94EA
:103BDA00EE28E0E00E94EE2DE093E40EE093E50E7D
:103BEA00E0E0E093E80EE093E90EE091E10EE16097
:103BFA000E94D228E5C0E530A0E0FA0739F40E9415
:103C0A00C4280E948728E0934320DAC0E03BA0E062
:103C1A00FA0741F40E94A72DE091E10EE4600E94A8
:103C2A00D228CEC0E13BA0E0FA0741F40E94A72DBA
:103C3A00E091E10EEB7F0E94D228C2C0E03CA0E0F6
:103C4A00FA0741F40E94A72DE091E10EE8600E9474
:103C5A00D228B6C0E13CA0E0FA0741F40E94A72DA1
:103C6A00E091E10EE77F0E94D228AAC0E03AA0E0E4
:103C7A00FA0731F5FADDE0E0E887E987A885B98532
:103C8A00199798F4E885F985E257F14EE081E0301A
:103C9A0049F00E940D2EDF01E885F985E257F14EC1
:103CAA00E081EC930E94072EE9CF0E94902A0E949D
:103CBA006A2AEFE00E94982A0E94862DC6D980C0FF
:103CCA00E03EA0E0FA0721F0E13EA0E0FA0709F49D
:103CDA0004C0E23EA0E0FA0709F404C0E33EA0E013
:103CEA00FA0709F404C0E43EA0E0FA0709F404C0A4
:103CFA00E53EA0E0FA0709F404C0E63EA0E0FA07B0
:103D0A0009F404C0E73EA0E0FA0709F404C0E83E5B
:103D1A00A0E0FA0729F43324E0912D14E05E30C0C4
:103D2A00E03FA0E0FA0721F0E13FA0E0FA0709F43A
:103D3A0004C0E23FA0E0FA0709F404C0E33FA0E0B0
:103D4A00FA0709F404C0E43FA0E0FA0709F404C042
:103D5A00E53FA0E0FA0709F404C0E63FA0E0FA074D
:103D6A0009F404C0E73FA0E0FA0709F404C0E83FF9
:103D7A00A0E0FA0729F5E1E03E2EE0912D14E05F7C
:103D8A006E2E73DD0E94CA280E94902A0E946A2A17
:103D9A00E0912D140E94982A0E94862D0E94A72D38
:103DAA00E4E0AE2EE0E0E0932814E0932914E093D7
:103DBA002A14E0932B14E2E00E94FB2D0E9498281B
:103DCA000C94A927E032A0E0FA0709F0A8C10E94E2
:103DDA00B12D09F0F0C0A0912E140E94B42D0E94BA
:103DEA004A28E0912F14A0911A0DB0911B0DF0E012
:103DFA00EA2BFB2B0E944A28A09130140E94B42D72
:103E0A000E944528A0911C0DB0911D0DE09131141E
:103E1A00F0E0EA2BFB2B0E944528E0913214E0E007
:103E2A00E0931E0DA0911E0DE0913314EA2BE0934E
:103E3A001E0DA09134140E94B42D0E944F28A09107
:103E4A001F0DB091200DE0913514F0E0EA2BFB2B09
:103E5A000E944F28A09136140E94B42D0E94272850
:103E6A00E09137140E94C529F0E0EA2BFB2B0E944F
:103E7A002728A09138140E94B42D0E942C28A091C2
:103E8A00FE0CB091FF0CE0913914F0E0EA2BFB2B09
:103E9A000E942C28A0913A140E94B42D0E94402816
:103EAA00A091000DB091010DE0913B14F0E0EA2BD6
:103EBA00FB2B0E944028A0913C140E94B42D0E9422
:103ECA003128A091020DB091030DE0913D14F0E06C
:103EDA00EA2BFB2B0E943128A0913E140E94B42D9C
:103EEA000E943628A091040DB091050DE0913F146F
:103EFA00F0E0EA2BFB2B0E943628A09140140E9486
:103F0A00B42D0E943B28A091060DB091070DE091B7
:103F1A004114F0E0EA2BFB2B0E943B28A0914214AB
:103F2A000E94B42DE093210DF093220D0E94372DAB
:103F3A00E0914314F0E0EA2BFB2BE093210DF09380
:103F4A00220DA09144140E94B42DE093270DF09302
:103F5A00280DA091270DB091280DE0914514F0E0AD
:103F6A00EA2BFB2BE093270DF093280DA091461422
:103F7A000E94B42DE093290DF0932A0DA091290DEA
:103F8A00B0912A0DE0914714F0E0EA2BFB2BE09365
:103F9A00290DF0932A0DE0914814E0932B0DAFE020
:103FAA00B0E00E94D404A1E1B0E00E94D4040E94CF
:103FBA00C2164BD8B3C0E230A0E0FA0709F0AEC08F
:103FCA000E94BF2DEDE1E0932216E0E20E94102E3E
:103FDA00E0911A0DF0911B0D0E946D30E0932516A9
:103FEA00E0911A0DE0932616E0911C0DF0911D0D3B
:103FFA000E946D30E0932716E0911C0DE09328167D
:10400A00A0911E0DE8E00E944E30E0932916E0913F
:10401A001E0DE0932A16E0911F0DF091200D0E94CB
:10402A006D30E0932B16E0911F0DE0932C16E09172
:10403A00FC0CF091FD0C0E946D30E0932D16E0917E
:10404A00FC0CE0932E16E091FE0CF091FF0C0E94FE
:10405A006D30E0932F16E091FE0CE0933016E0915C
:10406A00000DF091010D0E946D30E0933116E09140
:10407A00000DE09332160E94462D0E946D30E093A7
:10408A003316E091020DE0933416E091040DF0919D
:10409A00050D0E946D30E0933516E091040DE09312
:1040AA0036160E9477290E946D30E0933716E09108
:1040BA00060DE0933816E091210DF091220D0E9431
:1040CA006D30E0933916E091210DE0933A16E091B4
:1040DA00270DF091280D0E946D30E0933B16E09178
:1040EA00270DE0933C16E091290DF0912A0D0E94CC
:1040FA006D30E0933D16E091290DE0933E16E09174
:10410A002B0DE0933F16E3E0E09340160E94162E33
:10411A00E1E2F0E00E94142C0E942A1815C7E0334D
:10412A00A0E0FA0709F056C20E94B12D09F04DC16C
:10413A0042E050E0E0E0E887E987A885B98518976A
:10414A0018F5E0E0EE83EF83AE81BF811697B8F4ED
:10415A000E941A2E0E94222E0E94262E0E942E2E85
:10416A000E94342E0E942E2E0E94422EEA5EF44FA6
:10417A000E944E2E0E94522E0E94542DE5CF0E947C
:10418A00632E0E94072ED9CF0E94632EE0E0E887B3
:10419A00E987A885B985189718F5E0E0EE83EF83DB
:1041AA00AE81BF811697B8F40E941A2E0E94222E61
:1041BA000E94262E0E94682E0E94342E0E94682E8B
:1041CA000E94422EEE5DF44F0E944E2E0E94522E05
:1041DA000E94542DE5CF0E94632E0E94072ED9CF4C
:1041EA000E94632EE0E0E887E987A885B9851897D9
:1041FA0020F50E946E2E3196EC83FD830E946E2E6E
:10420A000E94762EAE0FBF1F13960E947F2E0E9429
:10421A00852E3396BF01A081E8E00E944630DB017B
:10422A000E94852E33960F01A0810E948B2EEA2BC5
:10423A00D001EC930E94072ED8CF0E94632EACE2E5
:10424A00B4E1A40FB51FEC91A2E1BDE0F0E0ED935B
:10425A00FC93F091120DE0E0E093120DF093130D30
:10426A00A091120DB091130D0E94912EE093120DA0
:10427A00F093130DA8E1BDE00E94992EF091180D5C
:10428A00E0E0E093180DF093190DA091180DB0918C
:10429A00190D0E94A12EE093180DF093190D4C5F91
:1042AA005F4FACE2B4E1A40FB51FEC91AEE0BDE004
:1042BA00F0E0ED93FC93F0910E0DE0E0E0930E0D2B
:1042CA00F0930F0DA0910E0DB0910F0D0E94912E3B
:1042DA00E0930E0DF0930F0DA0E1BDE00E94992E20
:1042EA00F091100DE0E0E093100DF093110DA09104
:1042FA00100DB091110D0E94A12EE093100DF093B4
:10430A00110DA4E1BDE0FA01E05DFB4EE081F0E0B1
:10431A00ED93FC93F091140DE0E0E093140DF0930B
:10432A00150DA091140DB091150DFA01EF5CFB4E1D
:10433A00E081F0E0EA2BFB2BE093140DF093150DCE
:10434A00A6E1BDE0FA01EE5CFB4EE081F0E0ED9300
:10435A00FC93F091160DE0E0E093160DF093170D23
:10436A00A091160DB091170DFA01ED5CFB4EE0819C
:10437A00F0E0EA2BFB2BE093160DF093170DFA01F0
:10438A00EC5CFB4EE081F0E00E94A92EF0912C0D2E
:10439A00E0E00E94A92EFA01EB5CFB4EE081A091BD
:1043AA002C0DB0912D0DF0E0EA2BFB2B0E94A92ECB
:1043BA000E94AE2EA0E1B0E00E94D404A3E1B0E0D6
:1043CA000E94D4040E942A1804C1E230A0E0FA072D
:1043DA0009F0FFC0E2E0E0932016E0E30E94102E0D
:1043EA0045E050E0E0E0E887E987A885B9851897B5
:1043FA00E8F4E0E0EE83EF83AE81BF81169788F49C
:10440A000E941A2E0E94222E0E94B62E0E942E2E42
:10441A000E94C22E0E942E2E0E94D52E0E94542D3A
:10442A00EBCF0E94632E0E94072EDFCF0E94632EDD
:10443A00E0E0E887E987A885B9851897E8F4E0E01D
:10444A00EE83EF83AE81BF81169788F40E941A2EFD
:10445A000E94222E0E94B62E0E94682E0E94C22E10
:10446A000E94682E0E94D52E0E94542DEBCF0E94E6
:10447A00632E0E94072EDFCF0E94632EE0E0E887BA
:10448A00E987A885B9851897E0F40E946E2E3196BF
:10449A00EC83FD830E946E2E0E94DA2EBF010E94D9
:1044AA00DF2EAC91E8E00E944E30DB010E94E92E3B
:1044BA000F010E94DF2EEC91D001EC930E94072E8F
:1044CA00E0CF0E94632EDA01A05EB94EE091120D90
:1044DA00F091130D0E94EF2EEF5DF94EDF01E0918E
:1044EA00120DEC93FA01EE5DF94EDF01E091180D21
:1044FA00F091190D0E94EF2EED5DF94EDF01E0916A
:10450A00180DEC934C5F5F4FDA01A05EB94EE09153
:10451A000E0DF0910F0D0E94EF2EEF5DF94EDF01A7
:10452A00E0910E0DEC93FA01EE5DF94EDF01E09198
:10453A00100DF091110D0E94EF2EED5DF94EDF0185
:10454A00E091100DEC93FA01EC5DF94EDF01E09178
:10455A00140DF091150D0E94EF2EEB5DF94EDF015F
:10456A00E091140DEC93FA01EA5DF94EDF01E09156
:10457A00160DF091170D0E94EF2EE95DF94EDF013D
:10458A00E091160DEC93FA01E85DF94EDF01E09136
:10459A002D0DEC93FA01E75DF94EDF01E0912C0D48
:1045AA00EC93465F5F4FFA0133970E94652AE42F26
:1045BA00E350E0932216A0E2B6E1A40FB51FE3E0B0
:1045CA00EC930E94162EFA0131960E94142C0E9436
:1045DA002A18BAC4E034A0E0FA0709F0CBC20E9454
:1045EA00B12D09F06FC142E050E0E0E0E887E987C9
:1045FA00A885B9851797A8F50E946E2E0E94F42EF9
:10460A000E94F72EE1F4A0E0BBE00E947F2EF0E0CA
:10461A00ED93FC93F091000BE0E0E093000BF09334
:10462A00010BA091000BB091010B0E948B2EF0E0C0
:10463A00EA2BFB2BE093000BF093010B0FC00E94B7
:10464A00FE2E0E947F2EF0E0ED93FC930E94FE2E38
:10465A000E94072FE055F54F0E94522E0E94072E06
:10466A00C7CF0E94632EE0E0E887E987A885B9856D
:10467A001797A8F50E946E2E0E94F42E0E94F72E1C
:10468A00E1F4A2E0BBE00E947F2EF0E0ED93FC9300
:10469A00F091020BE0E0E093020BF093030BA09180
:1046AA00020BB091030B0E948B2EF0E0EA2BFB2B3E
:1046BA00E093020BF093030B0FC00E94132F0E948A
:1046CA007F2EF0E0ED93FC930E94132F0E94072F98
:1046DA00EE54F54F0E94522E0E94072EC7CF0E9419
:1046EA00632EE0E0E887E987A885B9851997D8F4A9
:1046FA000E946E2E0E94F42E31960E941C2F0E9458
:10470A00212F0E947F2EF0E0ED93FC93A885B985B6
:10471A000E94212F0E94072FEA54F54F0E94522E21
:10472A000E94072EE1CF0E94632EE0E0E887E98726
:10473A00A885B9851997B8F40E94282FEA83FB83C4
:10474A000E940D2EDF010E947F2EEC93E885F985E9
:10475A00E257F14E7E2F8F2F0E940D2E0E942D2F91
:10476A000E94072EE5CF0E94322FA885B985189797
:10477A0068F40E94282F0E94762EAE0FBF1F129651
:10478A000E947F2EEC930E94072EEFCF0E94322FB9
:10479A00A885B985189780F40E94282F0E943A2F7D
:1047AA00EAE00E94A430EC54F54FDF010E947F2E0C
:1047BA00EC930E94072EECCF0E94322FA885B98570
:1047CA00199708F50E946E2E0E94F42E3196EC83FA
:1047DA00FD830E943F2F0E947F2EF0E0ED93FC9311
:1047EA000E943F2FED91FD91FE2FE0E0FE93EE93A4
:1047FA00E885F985AAEBBCE00E94E5290E94522EC1
:10480A000E94072EDBCFE091DA0CE09344200E944D
:10481A00632EE0E0E887E987A885B985189730F51F
:10482A00E0E0EE83EF83AE81BF811697D0F40E9459
:10483A001A2EEA83FB830E941A2E31960E941C2F9D
:10484A000E94442F0E94342E0E944D2F0E94422E15
:10485A00E25DF44F0E944E2E0E94522E0E94542D69
:10486A00E2CF0E94632E0E94072ED6CF0E94632EAB
:10487A00E0E0E887E987A885B9851897D0F4E0E0F1
:10488A00EE83EF83AE81BF81169770F4EE81FF81CC
:10489A00E40FF51F0E941C2F0E94532F0E948B2E9B
:1048AA00EC930E94542DEECF0E94632E0E94072E95
:1048BA00E2CFABE0B0E00E94D4040E94AE2E0E9488
:1048CA002A1857C1E230A0E0FA0709F052C1E2E023
:1048DA00E0932016E0E40E94102EE5E0F0E0E88381
:1048EA00F983A091B00AB091B10AA436E0E0BE07FC
:1048FA0014F40E943C2DE0E0E887E987A885B98591
:10490A00179718F50E945D2F0E94672F69F4AA81F4
:10491A00BB81A05EB94EE091000BF091010B0E94A1
:10492A006F2FE091000B0DC00E94772F0E94FE2E80
:10493A000E947E2F0E94852FE055F54FE081A72F18
:10494A00B82FEC930E94072ED9CF0E948D2FA885ED
:10495A00B985179718F50E945D2F0E94672F69F491
:10496A00AA81BB81A05EB94EE091020BF091030BC4
:10497A000E946F2FE091020B0DC00E94772F0E94B8
:10498A00132F0E947E2F0E94852FEE54F54FE0814F
:10499A00A72FB82FEC930E94072ED9CF0E948D2FF4
:1049AA00A885B9851997B8F40E945D2F0E94962FA1
:1049BA000E94772FA885B9850E94212F0E947E2FF9
:1049CA000E94852FEA54F54FE081A72FB82FEC9368
:1049DA000E94072EE5CF0E948D2FA885B9851997C9
:1049EA0058F40E94A12F7E2F8F2F0E940D2E0E9415
:1049FA002D2F0E94072EF1CF0E94A82FA885B985D6
:104A0A00189790F40E94A12F0F01E885F985AAEB67
:104A1A00BCE00E945F30AE0FBF1F1296EC91D0012E
:104A2A00EC930E94072EEACF0E94A82FA885B98589
:104A3A00189758F40E94A12F0E94852FEC54F54F25
:104A4A000E942D2F0E94072EF1CF0E94A82FA88521
:104A5A00B9851997D8F40E945D2F0E94962FEA8192
:104A6A00FB81E05EF94E0F010E943F2F0E943F3109
:104A7A000E946D30D0010E94E92E0F010E943F2F43
:104A8A00EC91D001EC930E94072EE1CF0E948D2F6A
:104A9A00A885B985189750F5E0E0EE83EF83AE81DB
:104AAA00BF811697F0F4AE81BF81E2E00E94A43084
:104ABA00A881B981EA0FFB1FEA83FB83AE81BF811C
:104ACA000E94962F0E94772FA885B9850E94442FAD
:104ADA000E94C22E0E944D2F0E94D52E0E94542D54
:104AEA00DECF0E94B12F0E94072ED2CF0E948D2FB7
:104AFA00A885B985189718F5E0E0EE83EF83AE81B3
:104B0A00BF811697B8F4EE81FF81A881B981EA0FB7
:104B1A00FB1FEC83FD83E05EF94E7E2F8F2FA88565
:104B2A00B9850E94532FEC91A72FB82FEC930E94BE
:104B3A00542DE5CF0E94B12F0E94072ED9CF0E9493
:104B4A00B12FE881F981E05EF94EA3E0A083E88104
:104B5A00F98133970E94652AE881E350E09322168F
:104B6A000E94162EE881F98131960E94142C0E9427
:104B7A002A18EAC1E13EA0E0FA07C1F40E942A1805
:104B8A000E94B12D41F40E94A72DE0E0E093FE1BA4
:104B9A00E7E0AE2E0AC0E230A0E0FA0731F40E9444
:104BAA00A72DE0E0E093FE1BAA24CEC1E03BA0E0E3
:104BBA00FA0709F0B5C00E94B12D21F0E230A0E059
:104BCA00FA0709F404C0E330A0E0FA0709F404C0C4
:104BDA00E430A0E0FA0709F404C0E530A0E0FA07DF
:104BEA0009F404C0E630A0E0FA0749F40E94B72F9E
:104BFA000E94BE2F0E94B72F0E94C72F90C0E73095
:104C0A00A0E0FA0749F40E94D02F0E94BE2F0E940A
:104C1A00D02F0E94C72F83C0E830A0E0FA0749F4DA
:104C2A000E94D62F0E94DD2F0E94D62F0E94E32FCA
:104C3A0076C0E930A0E0FA0749F40E94E92F0E9401
:104C4A00DD2F0E94E92F0E94E32F69C0E031A0E026
:104C5A00FA0749F40E94F02F0E94DD2F0E94F02FDC
:104C6A000E94E32F5CC0E032A0E0FA0749F40E94F8
:104C7A00F72F0E94DD2F0E94F72F0E94E32F4FC0CB
:104C8A00E033A0E0FA0749F40E94FE2F0E94DD2FCC
:104C9A000E94FE2F0E94E32F42C0E034A0E0FA07F0
:104CAA0049F40E9405300E94DD2F0E9405300E94BF
:104CBA00E32F35C0E035A0E0FA0749F40E940C3032
:104CCA000E94DD2F0E940C300E94E32F28C0E0369C
:104CDA00A0E0FA0749F40E9413300E94DD2F0E94D7
:104CEA0013300E94E32F1BC0E037A0E0FA0749F413
:104CFA000E941A300E94DD2F0E941A300E94E32F70
:104D0A000EC0EA30A0E0FA0751F40E94D02FE1E089
:104D1A00EA93E0912E14E150AE2F0E94151A12C1A7
:104D2A00E03FA0E0FA0719F40E9436180DC1E038F6
:104D3A00A0E0FA0709F0EEC00E94B12D09F085C083
:104D4A00A0912E140E94B42DDF01E0912F14F0E0FF
:104D5A00EA0FFB1FE093480FF093490FE093DF0C33
:104D6A00F093E00CA09130140E94B42DDF01E09181
:104D7A003114F0E0EA0FFB1FE0934A0FF0934B0F58
:104D8A00E0914A0FF0914B0FE093E40CF093E50C9D
:104D9A00A09132140E94B42DDF01E0913314F0E0A7
:104DAA00EA0FFB1FE0934C0FF0934D0FE0914C0F6D
:104DBA00F0914D0FE093E90CF093EA0CA0913414B2
:104DCA000E94B42DDF01E0913514F0E0EA0FFB1FD9
:104DDA00E0934E0FF0934F0FE0914E0FF0914F0F6B
:104DEA00E093EE0CF093EF0CA09136140E94B42DD0
:104DFA00DF01E0913714F0E0EA0FFB1FE093500F58
:104E0A00F093510FE091500FF091510FE093F30C92
:104E1A00F093F40CA09138140E94B42DDF01E091B4
:104E2A003914F0E0EA0FFB1FE093520FF093530F8F
:104E3A00E091520FF091530FE093F80CF093F90CB4
:104E4A00AEE0B0E00E94D40464C0E230A0E0FA0709
:104E5A0009F05FC0AEE0B0E00E9468040E94BF2D76
:104E6A00EEE0E0932216E0E80E94102EE091DF0CBB
:104E7A00F091E00C0E946D30E0932516E091DF0C72
:104E8A00E0932616E091E40CF091E50C0E946D3057
:104E9A00E0932716E091E40CE0932816E091E90CE0
:104EAA00F091EA0C0E946D30E0932916E091E90C2A
:104EBA00E0932A16E091EE0CF091EF0C0E946D300F
:104ECA00E0932B16E091EE0CE0932C16E091F30C94
:104EDA00F091F40C0E946D30E0932D16E091F30CE2
:104EEA00E0932E16E091F80CF091F90C0E946D30C7
:104EFA00E0932F16E091F80CE0933016E3E0E0938C
:104F0A0031160E94162EE2E1F0E00E94142C0E9453
:104F1A00A72D18C0EA3AA0E0FA07B1F4E0912D14DF
:104F2A00F0E0E535A0E0FA0779F40E94902AE093D0
:104F3A002216EAEAE0932316E091591C0E94982A65
:104F4A000E94862D0E942A18E0E0E093FC1B0C9434
:104F5A001C1DFFCFBA93AA9399818881009641F0CC
:104F6A00BD81AC81FB81EA8161916D930197E1F783
:104F7A00FD81EC8126960895EE0FFF1FAE0FBF1F2D
:104F8A000E943F31D001ED93FC93AAE01A9FF001F1
:104F9A000895AAE01A9FF001EB54F54F0895A0E096
:104FAA00B0E0A083B1830895DF01EE27A00FBE1FF2
:104FBA000895A0E31A9FF001E05FF44F0895EA0F05
:104FCA00FB1F0F01E02FF0E00895AE0FBF1FEC9119
:104FDA00D0010895A0E31A9FF001EA5EF44FDF01C1
:104FEA00E02FF0E0EE0FFF1F0895EE0FFF1FAE0F48
:104FFA00BF1F0E943F31D001ED93FC93A0E31A9F9B
:10500A00F0010895EE5DF44FDF01E02FF0E0EE0FBE
:10501A00FF1F0895F0E0EE0FFF1FEA0FFB1F089530
:10502A00EE0FFF1FAE0FBF1F0895E12FAAEBBCE0E2
:10503A00F0E00E945F300895A5E01A9FF001E15266
:10504A00F34F0895E093FC0CF093FD0C0895E09360
:10505A00FE0CF093FF0C0895E093020DF093030DFC
:10506A000895E093040DF093050D0895E093060D5D
:10507A00F093070D0895E093000DF093010D089544
:10508A00E0931C0DF0931D0D0895E0931A0DF09313
:10509A001B0D0895E0931F0DF093200D0895E8E687
:1050AA00F1E0E093210DF093220D0895E0E0E09302
:1050BA0081000895E0938500E0E0E093840008957C
:1050CA000E94A703A0E00C94A703FA93EA93EEE7E1
:1050DA00FCE1FA93EA930895EEE7FCE1FA93EA9386
:1050EA000895E0E0E0935B1CE0935D1CE091A01F53
:1050FA00F091A11FE093621CF093631CE0E0E0933F
:10510A005F1C0895E0E0E0934220E1E00895E09119
:10511A009C1FF0919D1F0895E0911E0DEB5FE09397
:10512A005F1CE1E00895E0E0E0938900EEE4E0939B
:10513A008800E5E0E09381000895E0E0E0935C1CDC
:10514A00E0919E1FE0935E1CE0E0E093641CE09314
:10515A00651C0895E091E10EEE7FE093E10E08955B
:10516A00E0930088E0915A1CEF7DE0935A1CE0938B
:10517A0000900895E0939A1FE0939B1F0895E1E041
:10518A00E0936A1CE093A91F0895E0915A1CE0621B
:10519A00E0935A1CE09300900895E093E10EE093A7
:1051AA00008808950A921A92FA926A937A938A93D5
:1051BA009A93AA93BA93EA93FA93EFB7EA93089564
:1051CA00E0912814F091291460912A1470912B14FB
:1051DA000895E0E0E093E20EE093E30E0895A091D3
:1051EA00E20EB091E30E0895A0912814B09129140B
:1051FA0080912A1490912B14A130E0E0BE07E0E0E0
:10520A008E07E0E09E070895A8E2B4E10E944931C2
:10521A00EF5FFF4F6F4F7F4F0E9453310895E09128
:10522A005A1CE09300900895E091E20EF091E30E8B
:10523A000895E0911F0DF091200DD1DFEA17FB07C9
:10524A000895E0915A1CEF7DE0935A1CE8CFE2E002
:10525A00E093041CE0E0E093051CE4E0E093061C04
:10526A00E1EEE093071CE1E0E093081CE091E30E15
:10527A00E093091CE091E20EE0930A1CE3E0E0935C
:10528A000B1C0895E0E2F6E1FA93EA93E4E0FCE10C
:10529A00FA93EA93A8E0B0E00E94AF27E1E0E09336
:1052AA00FE1BE1E0F0E0E0930F1CF093101CE8E035
:1052BA00F0E0E0930D1CF0930E1CE0912016E093B1
:1052CA00CE000895B1DF662777270E944E310895F0
:1052DA00A0916E1CB0916F1CAE0FBF1FA5DFEA171D
:1052EA00FB070895E091060DF091070D0895E093EC
:1052FA005A1C95CFE0912C0DF0912D0DA0E0B6E04F
:10530A008FCEEA85FB850E945F300895AE0FBF1FDE
:10531A000E9449313197604070400E94533108958C
:10532A000E944931EF5FFF4F6F4F7F4F0E94533109
:10533A000895AE0FBF1F0E9443310895A0912C0D0E
:10534A00B0912D0DAA0FBB1FA45AB74F0E943F312F
:10535A000895EAE00E94A430EB54F54F0895F8014D
:10536A00A0E0B6E05DCEF801A0E0B6E0EE0FFF1FC8
:10537A00EA0FFB1F0895E0E0F0E0ED93FC93089537
:10538A00A091FC0CB091FD0C089529DFAE17BF0760
:10539A00089588279927EBEFF2E060E070E00E9419
:1053AA00AF30DF01CB01E0E1F7E260E070E00E949C
:1053BA00FF300895E091E20EEA1B5E2FA52F0895B3
:1053CA000E945F30EA0FFB1F0895E52FA0E1B4E1C8
:1053DA00F0E008950E9472300E94FF300895A0E321
:1053EA00BFE018CE0E945F30A4CFABEFB2E080E0FE
:1053FA0090E00E94AF30DF01CB01E0E1F7E260E02C
:10540A0070E00E94FF3008950E945F30AE0FBF1F08
:10541A00E0E0F0E060E070E00E944E31089504DFC1
:10542A00A091200FB091210FEA17FB070895E09190
:10543A001A0FF0911B0FA9CFA1E00E944630EE8708
:10544A000895A2EFBDE0A00FB11F0895A1E00E9448
:10545A004630A091AC1FEA2BE093AC1F0895E4DE1E
:10546A00A4E5BFE0EE0FFF1FEA0FFB1F0895DCDE85
:10547A00A4E5BFE0D5CD0E943F316627772708957E
:10548A00E0912B0DF0E0E455F04EA0810895ED91E6
:10549A00FD913196FE93EE930895E0912814F091D0
:1054AA002914E093220FF093230F089589DEA09127
:1054BA00220FB091230F882799270E9473310895EC
:1054CA00EF2FF0E0E09321160895E0932216E0E131
:1054DA00E09323160895E0932416E5E2F6E1FA93A1
:1054EA00EA930895EB5DF94EA3E0A083E1E0E0932F
:1054FA00FE1BE1E0F0E0E0930F1CF093101C08950E
:10550A00F9013696E0930D1CF0930E1CE0912016DB
:10551A00E093CE001FCEE2E0E0932016E0E0E093B5
:10552A002116E2E00895E0932416E3E0E0932516BD
:10553A00E1E0E093FE1BE1E0F0E0E0930F1CF09362
:10554A00101C0895AA93BA93EA93FA93EFB7EA93D1
:10555A000895E0E0E983EA83EB830895F0E0E1301F
:10556A00A0E0FA070895A091171CB091181C809129
:10557A00191C90911A1C0895E091001CABE1BCE142
:10558A000895F1DF0E943530A093171CB093181CC0
:10559A008093191C90931A1CEFCFE091001CEF5FC7
:1055AA00E093001CE150ABE1BCE1F0E039CDDBDF78
:1055BA000E942B30E093171CF093181C6093191C5F
:1055CA0070931A1CE091011CA091001C0E940431E6
:1055DA00E093001C0895E091021CA0E3BFE0F0E014
:1055EA001FCD0E943F31A0914B1CB0914C1C0895D5
:1055FA00E091021CA8E4BFE00895662777270E947D
:10560A00AF30DF01CB01E8EEF3E060E070E00E942A
:10561A00FF300895E4EEF2E760E070E00E94AF30F8
:10562A00DF01CB01E0EAF6E861E070E00E94FF30BA
:10563A000895E0915A1CEF775ACEEB85A8E2EA9FCB
:10564A00F001E655F14EDF01EE81F0E0E9CCAF81E1
:10565A00B88589859A8508950E942B30EF83F8874B
:10566A0069877A870895E0919A1EF0E0F0DFB2CE5A
:10567A00EEDFF2CFEC81A4E2BFE0F0E0D1CC0D90F6
:10568A001C90EC81A0E3BFE00895EC81A0E3BFE0A9
:10569A00F0E0C6CC0E943F31D001ED93FC93F801B3
:1056AA0008950E943F31EF2FF0E0E093CE00089575
:1056BA000E946D30E093CE000895E091B20AF09115
:1056CA00B30A0895E091BC0AF091BD0A0895E091E9
:1056DA00C60AF091C70A0895E091D00AF091D10A5A
:1056EA000895E091DA0AF091DB0A0895E091E40A5C
:1056FA00F091E50A0895ED8DA1E00E9446300895E3
:10570A00ED8DF0E0E850F24F0895E0912B0DF0E0B6
:10571A00E455F04E0895E091000BF091010B2E171D
:10572A003F070895A091A60DB091A70D8091A80DED
:10573A009091A90DF9010E9472300E942B30E093DA
:10574A00A60DF093A70D6093A80D7093A90DE09193
:10575A00050BE0300895A091080BB091090BE09178
:10576A00060BF091070BAE17BF070895E091050BE2
:10577A00E093961EE0E0E093050BE8E0FBE00FCC37
:10578A00F9010E9472300E942B3008950E945F3006
:10579A00AE0FBF1F0895E093DA0DF093DB0D60930F
:1057AA00DC0D7093DD0D0895A8E5B8E0EE0FFF1F3C
:1057BA00EA0FFB1F0895AEE5BDE0E12FF0E0089582
:1057CA00AAE01A9FF001EC54F54FE081F0E0089549
:1057DA000E9472300E940A31AF010895E150F040F0
:1057EA00604070400895E12FF0E03196FE2FE0E02E
:1057FA004E2B5F2B0895EE0FFF1FEA0FFB1F089534
:10580A00E093E20DF093E30D6093E40D7093E50DE0
:10581A00E0E00895E093151CE093161C0895E093C8
:10582A000D1CF0930E1CE0912016E093CE00089513
:10583A00A6E01A9FF001E050F24FB6CBA6E01A9FFD
:10584A00F001EA5CF14FB0CBAE0FBF1F0E943F31AF
:10585A000895A22FB0E0AE17BF070895EC93A6E013
:10586A001A9FF001EE55F14F9FCBAE0FBF1F129654
:10587A00EC91F0E03197A02FB0E0EA17FB0708950A
:10588A00E12FAAEEBEE0F0E0CBCBE12FF0E0E85248
:10589A00F14FBF0120818DCBA6E01A9FF001E45998
:1058AA00F14F82CBE12FACEFBEE0F0E0B9CBB0E034
:1058BA00A852B14FEC910895E091531CEF5FE09329
:1058CA00531CE0910E0DF0910F0DA091531CB0E006
:1058DA00AE17BF070895E0E0E093531CEAE0E093B7
:1058EA00FE0DE1E0E093541CE091E10EE061E093EB
:1058FA00E10E0895E091551CEF5FE093551CE0918D
:10590A00100DF091110DA091551CB0E0AE17BF0714
:10591A000895E0E0E093551CE091E10EEF7EE093FC
:10592A00E10E0895E095A091E10EEA230895E09131
:10593A00D80EE09300890895E091D90EE093008A89
:10594A000895E091DA0EE093008B0895E091DB0E62
:10595A00E093008C0895E091DC0EE093008D0895A9
:10596A00E091DD0EE093008E0895E091DE0EE09363
:10597A00008F0895E091E10EE09300880895319731
:10598A00A0E0B6E04DCBA8E5B8E04ACBE091120D15
:10599A00F091130DA0E0B6E043CB0E943F310E9484
:1059AA006430EF2FE370F0709F0108950E943F3139
:1059BA00EF2FF0E00895ED91FD91FF70FE93EE93C5
:1059CA000895E091180DF091190DA0E0B6E028CBEA
:1059DA00AE0FBF1F1396EC91F0E03597A0E0B6E04A
:1059EA001FCB0E943F31FF70BF01A0E31A9FF00155
:1059FA000895DF010E943F31E617F7070895A0EAEC
:105A0A00A08313CBAE0FBF1F1396EC91F0E034972F
:105A1A00A0E0B6E005CBAE0FBF1F1396EC91F0E005
:105A2A003397A0E0B6E0FCCAAE0FBF1F1396EC9105
:105A3A00F0E03297A0E0B6E0F3CAAE0FBF1F1396AC
:105A4A00EC91F0E09CCFAE0FBF1F1396EC91F0E003
:105A5A003097A0E0B6E0E4CA0E943F31D001ED934E
:105A6A00FC930895A091210DB091220D0895E09123
:105A7A00000BF091010B3197E093B00AF093B10A51
:105A8A000895E091020DF091030D08950E94D5301A
:105A9A00DF01E091661CF0E00E94D5300895EE81A6
:105AAA00FF813196EE83FF830895E0E0E093171CAF
:105ABA00E093181CE093191CE0931A1CE0934B1C0A
:105ACA00E0934C1CE093001C08950E943F314BDD8B
