:0E0000000C9494010C9429050C9499050C9411
:10000E0000000C9400000C9400000C940B060C9451
:10001E0041060C94C0060C9400000C9400000C9445
:10002E0000000C9400000C9400000C9400000C9442
:10003E0000000C9400000C94E80A0C9400000C9440
:10004E0000000C9400000C9400000C9400000C9422
:10005E00E70A0C9400000C9400000C9400000C9421
:10006E0000000C9400000C9400000C9400000C9402
:10007E0000000C9400000C9400000C9400000C94F2
:10008E0000000C94370A0C9400000C94BA0A0C94DD
:10009E0000000C9400000C9400000C9400000C94D2
:1000AE0000000C9400000C9400000C9400000C94C2
:1000BE0000000C9400000C9400000C94000010271B
:1000CE00E80364000A0001000010000110000100A6
:1000DE000001C4095E010A00020004A00000000332
:1000EE000A0005000001020304051D00260033006E
:1000FE003C00490052005F0068000000020100034E
:10010E0004050607080001000200030004000500B4
:10011E0006000700080000000001000200030004B2
:10012E000005003200320032003200320032008C04
:10013E0000920098009E00A400AA0001020408107C
:10014E0020A80258020802E001A40140014001006B
:10015E000000005203A70257020702DF01A301525B
:10016E000300000000000001020304051D0026002C
:10017E0033003C00490052005F006800000000019F
:10018E000203040506070800010002000300040034
:10019E000500060007000800000000010002000331
:1001AE00000400050032003200320032003200320C
:1001BE0000140021002E003B0048005500010204EF
:1001CE00081020A80258020802E001A401400140D4
:1001DE0001000000005203A70257020702DF01A32D
:1001EE0001520300000000000040105020603070EB
:1001FE0001001900050003000A00010009000010AB
:10020E002030405060700000000000000000000030
:10021E0000000000000000000000000000000000D0
:10022E0000000000000000000000000000000000C0
:10023E0000000000000000000000000000000000B0
:10024E0000000000000000000000000000000000A0
:10025E000000000000000000000000000000000090
:10026E000000000000000000000000000000000080
:10027E000000000000000000000000000000000070
:10028E000000000000000000000000000000000060
:10029E000000000000000000000000000000000050
:1002AE00BC028A024402F401C20186010000000071
:1002BE0064002601260126012601260126010200E0
:1002CE000500DE000200770CE0000200AF0CE20039
:1002DE0001009219E40008009519E6000100F419D6
:1002EE00F0000800F919F60101001C1CFE010100C6
:1002FE001F1D00020100211D02020100231D040228
:10030E000100271D06020100C51D08020100C71DC0
:10031E000A020800C91D0C020000F894EE27EFBB7C
:10032E00F1E0F5BFE5BFE0937400E0937500F8E1EE
:10033E00A895A4B7A77FA4BFF0936000E0936000D8
:10034E008DE0A2E0BB27ED938A95E9F780E090E27D
:10035E00A0E0B2E0ED930197E9F7ECECF2E08591C5
:10036E009591009761F0A591B59105901590BF01FB
:10037E00F00105900D920197E1F7FB01F0CF8BBFD5
:10038E008CBFE0E0EEBBEFEFEDBFE1E2EEBFC0E011
:10039E00D6E00C94F919EF97EF97239781E8A0E038
:1003AE00B0E0E4E7F1E00E94082D1A930A9310E002
:1003BE00193090F5AAE01A9FF001E85AF74F0F0195
:1003CE00E12FF0E0DE01AF58BF4F0E945524E65AF0
:1003DE00F74F0F01E12FF0E0DE01A15ABF4F0E944F
:1003EE005524E45AF74FA6E0A083AAE01A9FF00125
:1003FE00E35AF74FA0E0A083AAE01A9FF001E25A59
:10040E00F74F0E946224AAE01A9FF001E05AF74FBC
:10041E000E9462241F5FCCCF10E0193008F04CC050
:10042E0000E0063008F046C0A0E31A9FF001EE543B
:10043E00F74F0E946724E1E0EC930E946C24DF01E9
:10044E00E02FF0E00E947224DE01A75ABF4F0E94F7
:10045E007824EC930E947D240E947224DE01A35B1B
:10046E00BF4F0E9488240E9495240E947224DE01B0
:10047E00AF5BBF4F0E948824EA52F74FDF01E02F97
:10048E000E949D24BF01E12FF0E0DE0193960E94B1
:10049E00A3240D901C90E02FF0E0DE01D5960E9473
:1004AE00A3240E94C72CE029F129DB01ED93FC93D4
:1004BE000F5FB7CF1F5FB1CF10E0193030F50E943C
:1004CE00A824EA0FFB1F0F01E12FF0E0DE015A9680
:1004DE000E947824F0E0ED93FC930E94A824AE0FC6
:1004EE00BF1F1296E6E0EC930E94A824EA0FFB1FB2
:1004FE0033960F01E12FF0E0DE011896EE0FFF1F8D
:10050E000E947824EC931F5FD8CF10E01630E0F4F1
:10051E00A5E01A9FF001EA57F54F0F01E12FF0E029
:10052E00DE0112960E947824EC930E94AF24A8EE6E
:10053E00B3E0A083B183A5E01A9FF001E757F54F12
:10054E000E9462241F5FE2CFE6E4F0E00E94B52431
:10055E00EAE0F0E00E94BA24ECE3F0E00E94BF244F
:10056E00ECE3F0E00E94C424E1EEF0E00E94C92426
:10057E0010E01230E8F4A6E01A9FF001E255F54FB4
:10058E00AEE1B0E0A083B183A6E01A9FF001E05582
:10059E00F54FA8E2B0E0A083B183A6E01A9FF00168
:1005AE00EE54F54FAFE0B0E0A083B1831F5FE1CF13
:1005BE00ECE3E093CB0AE093C40AE0E4F6E00E9499
:1005CE00CE24ECEDF5E00E94D324ECE2F1E00E94A3
:1005DE00D8240E94DD24EAE0F0E0E093C90AF0930B
:1005EE00CA0AE3E1E093CC0A19810881EF96EF96EF
:1005FE0025960895EFEFE1B9E2B9E7EAE4B9E5B976
:10060E00EFEFE7B9EFE7E8B9E8E0EAB9EFEFEBB9FA
:10061E00E6E0EDB9EFEFEEB9E0BBE1BBE1E0E3BB45
:10062E00E4BB0895E0E0E4BDE5E0E5BDE1EFE6BD45
:10063E00E0E0E7BDE8BDE09380000E94E4240E9464
:10064E00E824E0E0E0938700E0938600E6E0E093A4
:10065E008900EAE1E0938800E0E0E0938B00E0930C
:10066E008A00E0938D00E0938C00E2E0E0936F004F
:10067E00E5E0E0936900E4EFE0936A00E3EEEDBBA2
:10068E00ECBBE0E0E093C800E8EDE093C900E6E0E3
:10069E00E093CA00E0E0E093CD00E0E1E093CC000F
:1006AE00E0E0E5BFE0E8E0937400E0E0E093750081
:1006BE000895AA930E94FA2C10E040E050E010E852
:1006CE00EE81F0E0E750F64EE0811E2B14601360D1
:1006DE00289800E0083078F42F98E12FE0783E2F2C
:1006EE00303011F42D9801C02D9A110F2F9A000061
:1006FE0000000F5FEFCF2F9800002F9A000000E050
:10070E00003160F42F98440F551FE0E01C99E1E092
:10071E00F0E04E2B5F2B2F9A0F5FF2CF289AFA0143
:10072E000E94012DC7C0E8E0E5B9E0E5ECBDEDB5EE
:10073E00E160EDBD0895AA93E881EEBDEDB5E078D8
:10074E00E9F3EEB5E88321960895E0E0EEBDEDB550
:10075E00E078E9F3EEB5089526971A937298AFE90B
:10076E00EADF10E0163070F4E12FF0E0DE011196B2
:10077E00EA0FFB1FFF93EF93E8DFAF91BF91EC936E
:10078E001F5FF0CF729AA981AF3119F4AA81A632F8
:10079E0009F003C0E1E018818DC0E0E018818AC045
:1007AE001A937298A7EDC7DFAFEFC5DF1EB5729A29
:1007BE0017FF02C010E001C011E0E12F199108955A
:1007CE00BA93AA932497EC81FD810E94E72BEC83C8
:1007DE00FD83ED81E883EF73E883EC81EC7FE983A1
:1007EE00E0E0EA837298A3E8A6DFA881A4DFA981DE
:1007FE00A2DFAA81A0DF729A26960895BA93AA93D1
:10080E0024971A930A93EE81FF810E94E72BEE83C1
:10081E00FF83EF81EA83EF73EA83EE81EC7FEB8354
:10082E00E0E0EC837298A2ED86DFAA8184DFAB81D3
:10083E0082DFAC810E94EE24A0E07DDFA0E00E946A
:10084E00EE2400E010E00031E2E01E0760F4F80153
:10085E00EF5FF54EFF93EF9378DFAF91BF91EC937F
:10086E000F5F1F4FF0CF729A198108812896089555
:10087E00BA93AA931A930A937298E4E8EE83AE8120
:10088E000E94EE24AD8157DFEC81AE2F54DF0C8138
:10089E001D81EA81FB810E171F0748F4A1E0BAE122
:1008AE00A00FB11FAC9147DF0F5F1F4FF2CF729AAF
:1008BE001981088127960895BA93AA93A881B981C0
:1008CE009DDF6EDFE030E9F7A5E0B0E00E94AE2BD1
:1008DE00E881F981EB30A0E0FA0731F4E8E5F8E0C1
:1008EE000E94F324AAE53BC0EC30A0E0FA0739F4ED
:1008FE00E2EBF8E00E94F324A0EBB1E031C0ED3062
:10090E00A0E0FA0731F4E2E6FAE00E94F324A4E252
:10091E0026C0EE30A0E0FA0731F4E6E8FAE00E94D5
:10092E00F324AEE11CC0EF30A0E0FA0731F4E4EAA4
:10093E00FAE00E94F324AAE012C0E031A0E0FA0728
:10094E0019F4EEEAFAE006C0E131A0E0FA0751F43C
:10095E00E0ECFAE0FA93EA930E94FA24A2E1B0E006
:10096E000E9443246DC0BA93AA93E881F981EB30BB
:10097E00A0E0FA0741F40E94FA24E8E5F8E0FA93C1
:10098E00EA93AAE545C0EC30A0E0FA0749F40E94CC
:10099E00FA24E2EBF8E0FA93EA93A0EBB1E039C067
:1009AE00ED30A0E0FA0741F40E94FA24E2E6FAE004
:1009BE00FA93EA93A4E22CC0EE30A0E0FA0741F4D9
:1009CE000E94FA24E6E8FAE0FA93EA93AEE120C038
:1009DE00EF30A0E0FA0741F40E94FA24E4EAFAE0CC
:1009EE00FA93EA93AAE014C0E031A0E0FA0729F4E2
:1009FE000E94FA24EEEAFAE008C0E131A0E0FA071C
:100A0E0051F40E94FA24E0ECFAE0FA93EA93A2E1A0
:100A1E00B0E00E944324E4E8EA93E0E0F0E0FA93C9
:100A2E00EA93A0E1B2E024DFBBDEE030E9F7A88173
:100A3E00B981C6DEB5DEE030E9F700000000000047
:100A4E0022960895AA93EA93FA93EFB7EA93A091A8
:100A5E002C1DA13009F060C0489B21C0A0912E1D15
:100A6E00A130E1F4A0912B1DA130C1F4A0911B1C6B
:100A7E00A130A1F4A0912D1DA13039F4E1EAE0934B
:100A8E00CE00E091C800E072E1F30E94FF24E0E0A6
:100A9E00E0932C1DE0932E1DE0932B1D3DC0489935
:100AAE003BC0E0912E1DE030B9F5E0911B1CE0300B
:100ABE0099F5A091C51DA13079F5A0912D1DA130FC
:100ACE0039F4E0EAE093CE00E091C800E072E1F381
:100ADE00E1E0E0932E1D0E941025E0932B1DE0E037
:100AEE00E093291DE093F019E093F119E091231D95
:100AFE00E093EB19E1E0E0931B1C0E941525E093B7
:100B0E001D1DF0931E1D0E941A25E093E919E2E0C7
:100B1E00E09390190E942125E991EFBFF991E99197
:100B2E00A9911895AA93EA93EFB7EA93A0912C1D79
:100B3E00A13009F068C0499B30C0A0912E1DA13094
:100B4E0059F5E0911B1CE03039F5A0912A1DA1301A
:100B5E0019F5A0912D1DA13039F4E1EBE093CE00F3
:100B6E00E091C800E072E1F30E942B25E0E0E093F3
:100B7E002A1DE1E0E093291DE0E0E0931B1CE093C9
:100B8E002E1DA0911A1CA13039F40E9438250E9406
:100B9E003E25E0E0E0931A1C36C0499934C0E0913E
:100BAE002E1DE03081F5A0911B1CA13061F5A091A6
:100BBE00C61DA13041F5A0912D1DA13039F4E0EBF9
:100BCE00E093CE00E091C800E072E1F3E0E0E09344
:100BDE00251DE093261DE093F219E093F319E091A1
:100BEE00211DE093EC19E0E00E944825E1E0E0933E
:100BFE00EA19E0E0E0931B1CE093C61DE1E0E093F0
:100C0E002A1DE0932E1D31C0AA93EA93EFB7EA9303
:100C1E00659911C0A0912D1DA13039F4E3EAE0933E
:100C2E00CE00E091C800E072E1F30E944D25E1E0B4
:100C3E00E093C61D1AC0E0E0E093F819E1E0E093FE
:100C4E002C1DE093C51D0E945325A0912D1DA13092
:100C5E0039F4E2EAE093CE00E091C800E072E1F3ED
:100C6E00E091720CED7F0E945B25E991EFBFE99157
:100C7E00A99118950E946025EF97EF97689786E9DE
:100C8E00A0E0B0E0E4E1F2E00E94082DFE01FA934C
:100C9E00EA93EFE2FDE1FA93EA93A6E9B0E00E944F
:100CAE004324669B53C00E946E250E94ED2C01F5D5
:100CBE00E1E0F0E060E070E0E093B911F093BA117A
:100CCE006093BB117093BC110E947725E1E09E2EBC
:100CDE00E091E819E160E093E819E2E0EB1539F4F0
:100CEE00E1E0AE2EE0E0E093750CE093760C1FC0D1
:100CFE00E091C70AF091C80A0E947D25AE17BF0782
:100D0E0018F00E9482250CF407C00E9477250E94DD
:100D1E009225E1E09E2E06C00E947725E1E09E2EF0
:100D2E000E949225E091E819E160E093E819E0E372
:100D3E00FDE1FA93EA93FE013296FA93EA93A5E95E
:100D4E00B0E00E944324E0E0E0932F1D0E949D2519
:100D5E00EF96EF966896E991EFBFF991E991B99107
:100D6E00A9919991899179916991F9901990099028
:100D7E0018950E94602523970E94FA2C20E030E0FF
:100D8E0050E0E0E06499E1E04E2F641609F046C3AE
:100D9E000E94A225E130A0E0FA0721F0ED33A0E099
:100DAE00FA0709F404C0E937A0E0FA0709F404C011
:100DBE00E53BA0E0FA0709F404C0E13FA0E0FA0722
:100DCE0009F404C0ED32A1E0FA0759F40E9494131D
:100DDE000E94B513E091E819E460E093E819E1E0B0
:100DEE008E2EE091CB0AF0E00E947D250E948F2C82
:100DFE00EE31A0E0FA0749F4E1E0E81531F4882479
:100E0E00E091E819EB7FE093E819A091EE19A1307B
:100E1E0099F4E091EF19EF5FE093EF19A091EF19BC
:100E2E00AB3050F0E0E0E093EE19E093EF19E09173
:100E3E00720CEF7D0E945B25A0919419A13019F4DC
:100E4E000E94A72509F00FC0E0E0E09394190E94DC
:100E5E003825E260E093720CE2E0E093F819E0913D
:100E6E00720C0E943E25A091F819A13019F40E942F
:100E7E00A72509F00AC0E091720CE2600E945B2582
:100E8E00E2E0E093F8190E94AF250E94B525A091EB
:100E9E009D19A03021F4A0918F19A03009F002C045
:100EAE000E94A225EB2DF0E0E730A0E0FA0719F43E
:100EBE000E94D0259CC2309709F499C2E130A0E07F
:100ECE00FA0709F08FC10E94A2250E94F025EA17A9
:100EDE00FB0738F0E0919F0CF091A00C0E94F525D5
:100EEE0008F029C000E010E00630E0E01E07E8F44C
:100EFE00A02FDFDBEE83FF83A8E2A09FF001A19F6E
:100F0E00F00DE35DF34EDF01E0911D1C0E949D2468
:100F1E00FF93EF93AE81BF810E94F925AF91BF91F0
:100F2E00ED93FC930F5F1F4FDFCFE0911D1CEF5F22
:100F3E00E0931D1C32C00E94A225A0919F0CB0917F
:100F4E00A00CEA17FB0738F0E0912B1CF0912C1C3B
:100F5E000E94F52508F00BC0A0919F0C0E940A2656
:100F6E0080D4553018F0E0E0E0931D1C16C00E94AE
:100F7E00A225A091A70CB091A80CEA17FB0738F098
:100F8E00E091A90CF091AA0C0E94F52508F005C07D
:100F9E00A091A70C0E940A26D7D4A091A80AB091BE
:100FAE00A90A0E94A225EA17FB0738F0E091A30CCC
:100FBE00F091A40C0E94F52508F029C000E010E085
:100FCE000630E0E01E07F8F4F801A1EAB1E10E9454
:100FDE001026FF93EF93DF010E94CB2C7F936F932C
:100FEE00FF93EF93A02F65DB66277727AF91BF9115
:100FFE008F919F910E94B82BAF91BF910E94D62CDA
:10100E000F5F1F4FDDCFE0911E1CEF5F45C00E94AA
:10101E00A225A091A30CB091A40CEA17FB0738F0FF
:10102E00E091A50CF091A60C0E94F52508F036C0B3
:10103E00A091A30CE091730CEA1B5E2F0E94152663
:10104E000E941026FF93EF93DF010E94CB2CDF014D
:10105E00CB01E0911E1CF0E00E941A26AF91BF91C9
:10106E000E94D62CE52F0E941F26FF93EF930E941D
:10107E0015260E9422260E94CB2C0E942726AF9175
:10108E00BF91ED93FC930E9415260E9422260E948A
:10109E003626553018F0E0E0E0931E1C0E94A22583
:1010AE00A091AF0CB091B00CEA17FB0749F4E1E048
:1010BE00E0939D19E0912D1DE03011F40E9416125F
:1010CE000E943D2618F00E94452608F005C0A0910A
:1010DE00B10C0E940A26F4D4A091AA0AB091AB0AD0
:1010EE000E94A225EA17FB0738F0E091AD0CF091B3
:1010FE00AE0C0E94F52508F072C0A0911C1CA13008
:10110E0009F06DC0D09000A0C09000B000E010E0DB
:10111E000630E0E01E07B0F4E02F0E944A26A885B4
:10112E00AD21E885EA1729F40E944F26EC91EF5F76
:10113E00EC93A8E8BBE0A00FB11FE0E0EC930F5FCB
:10114E001F4FE6CFE091AD0CF091AE0C31970E949F
:10115E007D25EA17FB0709F042C000E010E00630DB
:10116E00E0E01E07E0F5E02F0E944A260E944F267F
:10117E00AC91AB30B8F0E02F0E945426A0912D1DFB
:10118E00A33079F4E0912F1DE093CE00E091C800DA
:10119E00E072E1F3EAEFE093CE00E091C800E07276
:1011AE00E1F314C0A0912D1DA33081F40E944F26AF
:1011BE00EC91E093CE00E091C800E072E1F3EDEF28
:1011CE00E093CE00E091C800E072E1F3A2E8BBE04C
:1011DE00A00FB11FE0E0EC930F5F1F4FC0CF0E9436
:1011EE004A1205C1E230A0E0FA0709F0EEC0E1E0D4
:1011FE00EA1519F40E9482250CF4D9C00E945D26CE
:10120E00FF93EF93A0918E0B0E946003AF91BF915D
:10121E00ED93FC930E945D26FF93EF930E9465264B
:10122E000E9469260E942726AF91BF91ED93FC93F1
:10123E000E9465260E94C72CDF01E091750CF0918B
:10124E00760CEA17FB0740F40E9465260E94C72C15
:10125E00E093750CF093760CE0918E0B0E944A266B
:10126E00D09000A0A885AD21E885EA1731F40E9440
:10127E0054260E944F26E0E0EC930E946E26B0E0CA
:10128E00E0918E0B0E94DE2BE170E13039F40E946A
:10129E006526ED91FD91F068FE93EE93C09000B03F
:1012AE00A885AC21E885EA1739F40E946526ED91F0
:1012BE00FD91F064FE93EE93E091770CF091780C33
:1012CE00A091750CB091760CEA17FB0720F4A09153
:1012DE008F0BA03009F014C0A9E7BCE00E94752660
:1012EE00A091790CB0917A0C559750F0E1E0E09313
:1012FE008F0BE0E0E093790CE0937A0C0E947B2652
:10130E00A0918F0BA13049F40E9484262CF4E2E0C8
:10131E00E0938F0B0E947B264AC0A0918F0BA230C8
:10132E0049F50E9484262CF5AA24BB24E0E0E09324
:10133E008F0B20EB34E0E2E0E093B113F90132962B
:10134E000E948E26E22FEE5F0E949326E0918E0B76
:10135E00E65F0E949926E5EEFCE0FA93EA93D90146
:10136E000E944324F9010E94A0260E94AE260E94EC
:10137E003E251DC0A091B911B091BA118091BB113B
:10138E009091BC11A333E0E0BE07E0E08E07E0E0F1
:10139E009E076CF0AA24BB240E94B9260E949326B5
:1013AE00EFEF0E94C1260E94AE260E943E25A0911C
:1013BE001A1CA13049F4AA24BB24E0E0E0931A1CC5
:1013CE000E943825E093008812C0E430A0E0FA07AE
:1013DE0071F40E943D2618F00E94452608F005C0C3
:1013EE00A091B10C0E940A266BD30E944A12E1E032
:1013FE00E91531F40E947D25A536E0E0BE0708F41C
:10140E0006C09924E091E819EE7FE093E819A3E76E
:10141E00BCE00E9475260E949D251EC0E7E0EB15DC
:10142E00D9F40E947D250E94F12C40F4A3E7BCE084
:10143E00ED91FD913197FE93EE930AC00E94A22585
:10144E00309731F4E7E6F1E0E093730CF093740C0F
:10145E000E94B5250E94D0250E94012D2996F3C128
:10146E000E94D0261A931091CE00E0918E19F0E0D2
:10147E00309709F03DC0123021F4E1E0E0938E196F
:10148E0036C0153AA1F5A0911B1CA130A9F40E94FB
:10149E004D250E941025E093C61DE1E0E0931A1C35
:1014AE00A0912D1DA13039F4E2EFE093CE00E09132
:1014BE00C800E072E1F31BC0E0911B1CE030B9F4F0
:1014CE00E0E0E0939419E0931A1C0E943825E26044
:1014DE00E093720C0E943E25A0912D1DA13039F48F
:1014EE00E3EFE093CE00E091C800E072E1F339C083
:1014FE00E130A0E0FA0751F4E12FF0E0E093A419F7
:10150E00F093A519E2E0E0938E192BC0E230A0E033
:10151E00FA07B9F4A2EAB9E10E9475263197E354AD
:10152E00FE4E1083E091A219F091A319A091A41977
:10153E00B091A519EA17FB0718F0E3E0E0938E19B6
:10154E0010C0E330A0E0FA0761F4133051F4E0E08C
:10155E00E0938E19E093A219E093A319E1E0E093D2
:10156E008D19199126C00E94D026E0918F19E03076
:10157E0001F1E0919E19F0919F19A091A019B091DF
:10158E00A119AE17BF0760F4A0EAB9E10E94752653
:10159E003197EF54FC4EE081E093CE00E1E007C0BE
:1015AE00E0E0E0938F19E093A019E093A119E09386
:1015BE009D19E991EFBFF991E991B991A99118950A
:1015CE0018950E9460252497E0E0E8830E94D726B4
:1015DE001A930A9300E010E0E0E00E94E824E09104
:1015EE0090190E94DC2609F08DC0A09193190E94DB
:1015FE0060038F01D8010E94F9250E94E1260E9406
:10160E00B82BEA83FB836C837D830E94EA26F0E08D
:10161E000E94A3240E9469260E94EF260E949D2408
:10162E00FF93EF93E0919219F0E03196AA81BB817E
:10163E008C819D810E941A26AF91BF91ED93FC93F0
:10164E000E94EA26F0E00E94A3240E94C72CE09399
:10165E00DC19F093DD190E94FB260E9469260E9478
:10166E0005270E9419270E941F27AE17BF0780F07B
:10167E000E9419270E941F27AE1BBF0BA093E219D1
:10168E00B093E319E0E0E093E019E093E11910C0A4
:10169E000E9419270E941F27EA1BFB0BE093E219F9
:1016AE00F093E319E1E0F0E0E093E019F093E11933
:1016BE00E091E219F091E319662777277F936F93F4
:1016CE00FF93EF930E942627F0E00E94A3240E942E
:1016DE00C72CAF91BF918F919F910E942B27E093C2
:1016EE00DE19F093DF19A091DE19B091DF1988276A
:1016FE0099270E943827E093DE19F093DF190E9494
:10170E0021259EC0E230A0E0FA0709F08FC0E1E08B
:10171E00EB1521F0E4E0EB1509F087C0A6EAB9E17C
:10172E000E947526A091E919A13079F5A0EFB9E1D3
:10173E000E947526E091F619F0E0A091F019B09193
:10174E00F1190E948F2C309701F5E091EB19EF5FA4
:10175E00E093EB19E091F519A091EB19EA02F00173
:10176E00A091C40AAE1BA093ED190E941525A0915D
:10177E00EB19B0E0E0E00E944825E091C40AA09188
:10178E00EB19AE1710F00E94FF24A091EA19A130B8
:10179E0009F040C0A5E2BDE10E947526E091271D2B
:1017AE00F091281DA091251DB091261DAE17BF07E3
:1017BE0088F1A2EFB9E10E947526E091F719F0E0E9
:1017CE00A091F219B091F3190E948F2C309711F558
:1017DE00E091EC19EF5FE093EC19E091F519A0910F
:1017EE00EC19EA02F001E093ED190E9415253A96E4
:1017FE00A091EC19B0E0E0E00E944825E091C40A07
:10180E00A091EC19AE1730F00E942B250E941A25DC
:10181E00E093291DE091291DE03019F40E94212545
:10182E0004C00E94E424E09390190AC0E330A0E0C3
:10183E00FA0731F40E9447270E94E424E09390199E
:10184E00198108812696E991EFBFF991E991B99135
:10185E00A9919991899179916991F990199009902D
:10186E001895AA9325970E94D726E0E0EC830E9454
:10187E00FA2C00E010E020E137E2EE83E0911D1C2F
:10188E00AE81AE1710F50E944D270E94C72CE017AF
:10189E00F10720F00E944D270D911C910E944D27BB
:1018AE000E94C72C2E173F0720F00E944D272D9126
:1018BE003C910E944D270E9469260E9457270E9444
:1018CE005C27EE81EF5FEE83D9CF0E946327AF01D5
:1018DE00E0E0EF83E887E987EA87EE83E0911D1C5D
:1018EE00AE81AE1768F50E944D270E94C72CE017F7
:1018FE00F10718F42E173F0760F0EB85A8E2EA9F78
:10190E00F001E35DF34EDF01EE810E949D244083E2
:10191E0051830E944D270E9469260E946827EB85FD
:10192E00A5EBBCE00E949D24FF93EF930E946327DA
:10193E00AF91BF91ED93FC93EE81EF5FEE83CECF2F
:10194E000E94012D2C960895AA930E94FC2C0E94B1
:10195E006A270E946F27F0E00E94A3240E94C72CE2
:10196E000E161F0628F00E946A270E946F2707C0D6
:10197E000E9475270D901C90EC81A5EBBCE0F0E069
:10198E000E94A3240E94C72CD001AE1BBF0B8D0159
:10199E00EC81AFE1BCE10E949D240F010E947527EE
:1019AE000E947A27F801662777277F936F93FF931C
:1019BE00EF93EC81A9EDBCE0F0E00E94A3240E941D
:1019CE00C72CAF91BF918F919F910E942B279F01A2
:1019DE00D9010E94FF2B0E9438279F01A0912D1D37
:1019EE00A23009F047C00E946A270E948027E0912A
:1019FE00C800E072E1F30E946A27EC91E093CE00FA
:101A0E00E091C800E072E1F30E9475270E948027E2
:101A1E00E091C800E072E1F30E947527EC91E0932B
:101A2E00CE00E091C800E072E1F3EDEDE093CE0060
:101A3E00E091C800E072E1F3F9010E948727E0917E
:101A4E00C800E072E1F32093CE00E091C800E0728E
:101A5E00E1F3EEEDE093CE00E091C800E072E1F329
:101A6E00AC81A53039F4EFEDE093CE00E091C800E3
:101A7E00E072E1F30E946A270E946F27F0E00E9455
:101A8E00A3240E94C72C0E161F0640F0EC81A5E978
:101A9E00B1E10E949D24208331830EC0EC81A5E923
:101AAE00B1E10E949D24BF01F901AFEFBFEF0E948B
:101ABE00322CDB01ED93FC930E94032D25960895A5
:101ACE00AA93679786E1A1E0B0E0EAEAF2E00E940D
:101ADE00082D0E94FA2C1FEF00E040E050E00E941B
:101AEE008C277496EB87FC870E9491277496ED875E
:101AFE00FE870E9496277496EF87F88B0E949B278D
:101B0E007496E98BFA8B0E94A0277496EB8BFC8B54
:101B1E000E94A5277496ED8BFE8BE1E0EB1529F460
:101B2E00ED8DA5E9B1E1F0E040C0E4E0EB1509F080
:101B3E0042C0442019F5ED8DE030E9F4E5E0E715FB
:101B4E0039F4E1E0E0932F1DE0E0E093880B12C042
:101B5E00E6E0E71539F4E4E6E093880BE0E0E09385
:101B6E002F1D08C0E72DF0E0DE011B960E94A32476
:101B7E002D913C9102C02AE030E01DC0E1E0E41559
:101B8E00D1F4E5E0E71529F40E94AA27E0932F1D72
:101B9E0012C0E6E0E71529F40E94AF27A4E6A08361
:101BAE000AC0E72DF0E0DE011B96EE0FFF1FAE0F11
:101BBE00BF1F2D913C91ED8DA2EDBAE0F0E00E9499
:101BCE0010260F01ED8DA5E9B1E1F0E00E94A324EE
:101BDE000E94C72CD0010E94FA2B0E94D62C0E9484
:101BEE006E26ED8D0E94D62BE170EE83A0912D1DF9
:101BFE00A33081F5E0912F1DE093CE00E091C80057
:101C0E00E072E1F3E091301DE093CE00E091C80068
:101C1E00E072E1F3E091311DE093CE00E091C80057
:101C2E00E072E1F3E091321DE093CE00E091C80046
:101C3E00E072E1F30E94B427E081E093CE00E091E0
:101C4E00C800E072E1F3EBEFE093CE00E091C80044
:101C5E00E072E1F3AE81A03029F40E94AF27A0819B
:101C6E00A63008F013C20E94BA270E9436260E94A0
:101C7E00B427BF0110800E94AA27E095E121DB0165
:101C8E00EC930E94AF27A0E0A0830E94BF27B4F080
:101C9E000E94C62791F00E94EA2734F0E091AE0828
:101CAE00F091AF08309739F4A0EBB8E00E9475269A
:101CBE000E94F52702C00E940028E7C10E94BF279C
:101CCE002CF40E948C272E173F070CF443C010E013
:101CDE00A2E0BBE00E940A28A091260BB091270B30
:101CEE008091280B9091290B0E941328E093260BCC
:101CFE00F093270B6093280B7093290BE0915D08EE
:101D0E00E03039F1A0916008B0916108E0915E0871
:101D1E00F0915F08AE17BF0734F0A0915E08B09146
:101D2E005F08109749F4A0E6B8E00E947526AAE471
:101D3E00BBE00E940A280DC0E0915D08E093111CE3
:101D4E00E0E0E0935D08E0E0F0E0E0936008F093FF
:101D5E0061089BC10E948C272E173F072CF40E940E
:101D6E0091272E173F070CF441C011E0A6E0BBE00F
:101D7E000E940A28A0912A0BB0912B0B80912C0B5C
:101D8E0090912D0B0E941328E0932A0BF0932B0BAE
:101D9E0060932C0B70932D0BE0916708E03029F1C6
:101DAE00A0916A08B0916B08E0916808F0916908FB
:101DBE00AE17BF0734F0E0916808F09169083097CC
:101DCE0049F4AAE6B8E00E947526AEE4BBE00E9494
:101DDE000A280BC0E0916708E093121CE0E0E09344
:101DEE006708EAE6F8E00E9462244FC10E9491273C
:101DFE002E173F072CF40E9496272E173F070CF440
:101E0E0041C012E0AAE0BBE00E940A28A0912E0B6E
:101E1E00B0912F0B8091300B9091310B0E941328B3
:101E2E00E0932E0BF0932F0B6093300B7093310BCE
:101E3E00E0917108E03029F1A0917408B091750815
:101E4E00E0917208F0917308AE17BF0734F0E0917D
:101E5E007208F0917308309749F4A4E7B8E00E9435
:101E6E007526A2E5BBE00E940A280BC0E09171081E
:101E7E00E093131CE0E0E0937108E4E7F8E00E94C1
:101E8E00622403C10E9496272E173F072CF40E944E
:101E9E009B272E173F070CF441C013E0AEE0BBE0CA
:101EAE000E940A28A091320BB091330B8091340B13
:101EBE009091350B0E941328E093320BF093330B65
:101ECE006093340B7093350BE0917B08E03029F171
:101EDE00A0917E08B0917F08E0917C08F0917D087A
:101EEE00AE17BF0734F0E0917C08F0917D08309773
:101EFE0049F4AEE7B8E00E947526A6E5BBE00E9465
:101F0E000A280BC0E0917B08E093141CE0E0E093FC
:101F1E007B08EEE7F8E00E946224B7C00E949B2780
:101F2E002E173F072CF40E94A0272E173F070CF404
:101F3E0041C014E0A2E1BBE00E940A28A091360B3A
:101F4E00B091370B8091380B9091390B0E9413286A
:101F5E00E093360BF093370B6093380B7093390B7D
:101F6E00E0918508E03029F1A0918808B0918908A8
:101F7E00E0918608F0918708AE17BF0734F0E09124
:101F8E008608F0918708309749F4A8E8B8E00E94D7
:101F9E007526AAE5BBE00E940A280BC0E0918508D1
:101FAE00E093151CE0E0E0938508E8E8F8E00E9475
:101FBE0062246BC00E94A0272E173F072CF40E94AC
:101FCE00A5272E173F070CF441C015E0A6E1BBE094
:101FDE000E940A28A0913A0BB0913B0B80913C0BCA
:101FEE0090913D0B0E941328E0933A0BF0933B0B1C
:101FFE0060933C0B70933D0BE0918F08E03029F11C
:10200E00A0919208B0919308E0919008F0919108F8
:10201E00AE17BF0734F0E0919008F0919108309719
:10202E0049F4A2E9B8E00E947526AEE5BBE00E9435
:10203E000A280BC0E0918F08E093161CE0E0E093B5
:10204E008F08E2E9F8E00E9462241FC00E94A527D3
:10205E002E173F0724F42436E0E03E070CF415C09B
:10206E000E94C62791F00E94EA2734F0E091AE0854
:10207E00F091AF08309739F4A0EBB8E00E947526C6
:10208E000E94F52702C00E940028C8C00E94AF27F8
:10209E00A081A63008F444C017E0AEE1BBE00E9478
:1020AE000A28A091420BB091430B8091440B909162
:1020BE00450B0E941328E093420BF093430B609361
:1020CE00440B7093450BE091A308E03029F1A091E9
:1020DE00A608B091A708E091A408F091A508AE1744
:1020EE00BF0734F0E091A408F091A508309749F4A9
:1020FE00A6EAB8E00E947526A6E6BBE00E940A2872
:10210E000BC0E091A308E093181CE0E0E093A30855
:10211E00E6EAF8E00E9462240E94AF27A0E0A083C6
:10212E000E946E26ED8D0E94D62BE170EE83AE815D
:10213E00A13009F073C0A0912D1DA330E9F4F9016F
:10214E000E948727E091C800E072E1F32093CE0051
:10215E00E091C800E072E1F30E94B427E081E093C1
:10216E00CE00E091C800E072E1F3EEEFE093CE0016
:10217E00E091C800E072E1F316E00E94BA27E1E0B8
:10218E00F0E060E070E00E94D62CAAE1BBE00E9475
:10219E000A28A0913E0BB0913F0B8091400B90917D
:1021AE00410B0E941328E0933E0BF0933F0B60937C
:1021BE00400B7093410BE0919908E03029F1A0910A
:1021CE009C08B0919D08E0919A08F0919B08AE177B
:1021DE00BF0734F0E0919A08F0919B08309749F4CC
:1021EE00ACE9B8E00E947526A2E6BBE00E940A2880
:1021FE000BC0E0919908E093171CE0E0E09399087A
:10220E00ECE9F8E00E9462240E94B427BF0110801E
:10221E000E94AA27E095E121DB01EC931F3F09F410
:10222E00FAC0AEE6BBE00E940A28A091720BB091F4
:10223E00730B8091740B9091750B0E9413280E9462
:10224E00192840E050E00E9422280E94CB2C0E94C8
:10225E00E72CACF00E9422280E9436260E942228EB
:10226E000E94CB2C7F936F93FF93EF930E942728AE
:10227E00AF91BF918F919F910E942F288CC0A091FA
:10228E00C71DA93009F466C0E091C71D1E1788F45A
:10229E000E9422280E9435287F936F93FF93EF931D
:1022AE000E942728AF91BF918F919F910E942F2856
:1022BE0050C0E0E0EF83E887E987EA870091C71D09
:1022CE00093060F4A2E0BBE0E02FF0E00E9422268D
:1022DE000E94CB2C0E9468270F5FF2CFA091C71DE2
:1022EE00A83051F4E0911A0BF0911B0B60911C0B6E
:1022FE0070911D0B0E946827EF81F88569857A859C
:10230E00E150F04060407040DF01CB01E091980851
:10231E00F0E00E942F28A0912D1DA330D1F4109330
:10232E00CE00E091C800E072E1F3FA010E94872727
:10233E00E091C800E072E1F34093CE00E091C80056
:10234E00E072E1F3EFEDE093CE00E091C800E072B1
:10235E00E1F321C00E9422280E9435287F936F93BB
:10236E00FF93EF930E942728AF91BF918F919F917A
:10237E000E942F28A0912D1DA33069F44093CE000A
:10238E00E091C800E072E1F3ECEDE093CE00E09155
:10239E00C800E072E1F3A091C71DA93049F0E091A9
:1023AE00C71D1E1718F40E943C2801C0576002C0BA
:1023BE000E943C28AAE01A9FF001E35AF74FA08131
:1023CE00A13008F05061ED8DF0E0A6E0B0E0AE1B5C
:1023DE00BF0BE1E0F0E00E94E02CEA1BFB0B0E9439
:1023EE00442840835183A0912D1DA330A1F4FA01FE
:1023FE000E948727E091C800E072E1F34093CE007F
:10240E00E091C800E072E1F3EBEDE093CE00E091D5
:10241E00C800E072E1F30E94012D6E9608951A93A2
:10242E000A93AEE7BBE0E091A619F091A7196627D3
:10243E0077270E94D62C0E946E250E944B280E9460
:10244E00552800EB10E0E2E0E093B113F80132966C
:10245E000E948E26E02FEE5FE093B313E0EAE09346
:10246E00B413E0E00E949926E2EDFAE0FA93EA93C3
:10247E00D8010E944324F8010E94A026F801369646
:10248E000E945A2868C10E94FC2C10E0193008F0F6
:10249E00E5C000E0063008F0C4C00E946328AC918D
:1024AE00A03A09F076C00E946928EC91EF5FEC9398
:1024BE00A0912C1DA13009F041C00E9469282C91D9
:1024CE000E947D240E946F28DF01E091ED19F0E05B
:1024DE00EA0FFB1F0E94742884F1A0912D1DA130DC
:1024EE0079F4E091ED19E093CE00E091C800E0722E
:1024FE00E1F3EEEEE093CE00E091C800E072E1F37E
:10250E000E9469280E947928E1E0EC930E946328DA
:10251E00EAE0EC930E94A8240E94802831F40E94E5
:10252E008B28E1E0F0E0ED93FC930E9490280E944E
:10253E006724EC91E22BDB01EC932BC0E0912C1D78
:10254E00E03039F50E9469282C910E947D240E946A
:10255E006F280E947428ECF00E9469280E94792846
:10256E00E1E0EC930E946328EAE0EC930E94A82439
:10257E000E94802831F40E948B28E1E0F0E0ED9378
:10258E00FC930E9490280E946724EC91E22BDB01C1
:10259E00EC93A6E01A9FF001ED5CF34F0E946724C6
:1025AE00EC91E030E1F10E949728EC91EF5FEC9313
:1025BE000E9497282C91A0E31A9FF0010E94952467
:1025CE000E946F280E94742854F10E9490280E9445
:1025DE006724EC91E095E223DB01EC930E949728AF
:1025EE000E947928EC930E94A8240E948028B9F4B6
:1025FE000E948B280E94C72CE130A0E0FA0779F4E4
:10260E000E949D280E94A2280E948B28E2E0F0E002
:10261E00ED93FC93A12F0E94A728E068EC930F5F27
:10262E0039CF0E948B280E94C72CE230A0E0FA0717
:10263E0099F40E949D280E9475260E949D280E9452
:10264E00C72C3B9748F0A12F0E94A728EF77EC9359
:10265E000E948B280E94A2281F5F18CFA091900B7A
:10266E00A03A21F5E091E419EF5FE093E419E091CF
:10267E00B40AF091B50AA091E419B0E0AE17BF0705
:10268E00ACF0E0E0E093E419EAE0E093900BE1E0D7
:10269E00E093E519E091720CE068E093720CE09122
:1026AE00C81DA091720CEA2BE093720CA091E51953
:1026BE00A13011F5E091E619EF5FE093E619E09194
:1026CE00B60AF091B70AA091E619B0E0AE17BF07AF
:1026DE009CF0E0E0E093E619E091720CEF77E09366
:1026EE00720CE091C81DE095A091720CEA23E09364
:1026FE00720CE0E0E093E5190E94AC280E94B1282C
:10270E000E94B6280E94BB280E94C0280E94C5289D
:10271E000E94CA280E94CF28D9C01A930A930CE2AD
:10272E0011E01123C2F0002E012A59F0F8010E9487
:10273E0044280F01F8010E94D4280E94C72CD00112
:10274E0005C0F8010E94D828E0E0F0E0ED93FC937C
:10275E0001501040E6CF0991199108950E94FC2C6A
:10276E000E94DB280E94C72C0E94EC2BEF2FE370F7
:10277E00F0709F010E94DB280E94E028EF700E2F60
:10278E00E1E0F0E0E217F307B9F4E0EAE093900B32
:10279E00AAE00A9FF001E35AF74FE081F0E031978B
:1027AE00E753F24EE081E093C81D0E94DB28ED91C5
:1027BE00FD91FF70FE93EE9310E0193008F086C085
:1027CE000E94A8240E94E5280E94EC28E052F74FB0
:1027DE000E94F42859F4A6E01A9FF001EA56F44F2D
:1027EE000E94FA280E94E5280E94A2280E94A8248E
:1027FE000E94FD280E94EC28E252F74F0E94F42816
:10280E0059F4A6E01A9FF001EB56F44F0E94FA28F5
:10281E000E94FD280E94A2280E94A8240E9404293A
:10282E000E94EC28E452F74F0E94F42859F4A6E0D7
:10283E001A9FF001EC56F44F0E94FA280E940429C8
:10284E000E94A2280E94A8240E940B290E94EC2814
:10285E00E652F74F0E94F42859F4A6E01A9FF001B1
:10286E00ED56F44F0E94FA280E940B290E94A228CE
:10287E000E94A8240E9412290E94EC28E852F74FC9
:10288E000E94F42859F4A6E01A9FF001EE56F44F78
:10289E000E94FA280E9412290E94A2280E94A824AF
:1028AE000E9418290E94EC28EA52F74F0E94F42841
:1028BE0059F4A6E01A9FF001EF56F44F0E94FA2841
:1028CE000E9418290E94A2281F5F77CF0E94032D15
:1028DE00249608952C978CE0A0E0B0E0E0ECF2E0B6
:1028EE000E94082D1A93ABE0B0E00E946304ACE0A6
:1028FE00B0E00E946304ADE0B0E00E946304AEE07D
:10290E00B0E00E946304AFE0B0E00E946304A0E177
:10291E00B0E00E946304A1E1B0E00E94630410E005
:10292E001630B0F50E94AF24DF010E94C72C3097FD
:10293E0021F0EF3FA0E0FA07D9F4E12FA9EDBCE0BA
:10294E000E949D240F01E12FF0E0DE0111960E94FE
:10295E00A3240E947A270E94AF240F01E12FA9ED34
:10296E00BCE0F0E00E94A3240E94C72CD0010CC052
:10297E00E12FA9EDBCE00E949D24BF010E94AF246F
:10298E00DF010E94C72CDB01ED93FC931F5FC8CFC4
:10299E000E941F29A836E1E0BE0731F40E941F29CC
:1029AE00A835E2E0BE0759F0ECE3E093CB0AECE386
:1029BE00F0E0E093C90AF093CA0A0E94DD24A091C8
:1029CE005808B0915908A632E2E0BE0714F40E94EE
:1029DE00242918812D960895E091A60AF091A70A50
:1029EE000E94F025EA0FFB1FE0939F0CF093A00CC2
:1029FE003696E093A10CF093A20CE091A80AF09108
:102A0E00A90A3A96E093A30CF093A40C3696E093A1
:102A1E00A50CF093A60CE091A10CF091A20C3696A9
:102A2E00E0932B1CF0932C1C3296E093A70CF093A2
:102A3E00A80C3696E093A90CF093AA0CE4E5F1E00D
:102A4E00E093B10CF093B20C3696E093AB0CF0938E
:102A5E00AC0C0E942E297E96E093AD0CF093AE0C3A
:102A6E00A091C40AE091C40A0E943C2CE093F5198F
:102A7E00E091C40AF0E0A091C00AB091C10A0E9490
:102A8E003329E093F619A091C20AB091C30AE091DE
:102A9E00C40AF0E00E943329E093F719A091CF0AFF
:102AAE00B091D00AE5E0F0E00E945D2CE093271D86
:102ABE00F093281DE091CD0AF091CE0AE093211DEE
:102ACE00F093221D0E942E29309719F4E0E0E09336
:102ADE001C1C089522970E94FA2CE0E0EE83EF83EF
:102AEE00AE81BF81AC32E1E0BE0748F4EE81FF81DA
:102AFE000E94D8280E94A2280E943C29F1CF0E9451
:102B0E009A030E94B3030E2F003041F0E3DEA09132
:102B1E00CC0AA33111F00E94D20102C00E94D20150
:102B2E005BDFA0E04F9BA1E0EA2FEE0FAE2FE0E0BF
:102B3E004E9BE1E0EA2B3E2F303011F0323011F493
:102B4E00E1E001C0E2E0E093E719323011F03330FA
:102B5E0019F4E1E05E2E01C05524E091820AE09363
:102B6E00C71DE09100A0E0782E2F203011F46624CE
:102B7E0004C0203811F4E1E06E2E50E0563008F01B
:102B8E005FC00E94422910E0103FF0F5E0919219CB
:102B9E001E1788F00E94EA26F0E00E94A3240E94ED
:102BAE0052290E94BD2BA093A819B093A919809306
:102BBE00AA199093AB190E94EA260E949D24FF93B6
:102BCE00EF93A52F0E946003AF91BF91ED93FC93FD
:102BDE000E94FB260E9469260E940527E52FADEC78
:102BEE00BCE00E949D24FF93EF93E0919219F0E0D8
:102BFE000E94E1260E941A260E942726AF91BF91BD
:102C0E00ED93FC931F5FC0CFE52F0E941F260F018F
:102C1E00E52FADECBCE0F0E00E94A3240E947A27E1
:102C2E00E52FAFE1BCE10E949D240F01E52FA1EC41
:102C3E00BCE0F0E00E94A3240E947A275F5F9ECF43
:102C4E000E945829A6E9B0E00E94AE2B0E944727A9
:102C5E00A0E5B0E00E94AE2B10E0113060F40E94AF
:102C6E0058290E945E290E944727A0E5B0E00E94E5
:102C7E00AE2B1F5FF2CFE091E819E064E093E81904
:102C8E000E949D25E091720CE2600E945B25789473
:102C9E000E94012D289608950E945829E3E00E9473
:102CAE006229ECE0E0938900E5E30E94662908952D
:102CBE0028970E94FA2C11E00E94B926E093B313D4
:102CCE00E0EF0E946C290E947029E0E0E0938D19DC
:102CDE0040E050E04630E0E05E0708F072C00E942F
:102CEE00422920E030E0203FE0E03E0708F066C0D9
:102CFE00A42F0E946003EA87FB87022E032AB1F4F9
:102D0E00E0E0EC87ED870E94732980F40E947B2916
:102D1E00AA85BB85A083B1830E9484290E948C2939
:102D2E00EC85FD853196EC87FD87EDCF0E948429D9
:102D3E00EE83FF83688779870E94EA26F0E00E947F
:102D4E00A3240E9469260E94EF260E949D24FF93D1
:102D5E00EF93E0919219F0E03196AE81BF818885B4
:102D6E0099850E941A26AF91BF91ED93FC93FA01BB
:102D7E00A1ECBCE00E949529FF93EF930E94EA26F6
:102D8E00F0E00E94A3240E9469260E942726AF919C
:102D9E00BF91ED93FC930E94FB260E9452290E9444
:102DAE00B82B0E948C29E0919219A09191190E9442
:102DBE008C2CE09391192F5F3F4F95CF4F5F5F4F54
:102DCE0089CF0E949A29103009F44CC1E0918D19D7
:102DDE00E03009F446C1E091BD11F0E0E13FA0E022
:102DEE00FA0709F050C0E0E0E09381000E94B92696
:102DFE00E093B313E1EF0E946C290E947029E091D9
:102E0E008F19E030E1F70E949A290E9453250E9403
:102E1E00E424E093A819E093A919E093AA19E0938A
:102E2E00AB19E0E0E0939119E091BE11E093931994
:102E3E00E0E0EC87ED870E947329D8F40E947B298D
:102E4E000F010E9419270E947A27EC85FD85ACEAB6
:102E5E00B9E10E94A3240E9469260E94E1260E94E5
:102E6E00B82B0E948C29EC85FD853196EC87FD8769
:102E7E00E2CFE1E00E946229E1E0E0938900E8E31D
:102E8E000E946629EBC0E33FA0E0FA07A9F4E0E058
:102E9E000E94E824E0E0E0938100FEDE0E94AF2570
:102EAE000E94A0290E94B926E093B313E3EF0E947B
:102EBE006C290E947029D2C0E23FA0E0FA0709F007
:102ECE003FC0E0E0E09381000E94A42989F40E94B3
:102EDE0026270E949D24BF01A091C0110E94A72900
:102EEE00DF01E091C111F0E0EA0FFB1FDB010BC027
:102EFE00E230A0E0FA07E1F40E942627F0E00E94FB
:102F0E00A324E8EEF3E0ED93FC93E0919319A5E092
:102F1E00EA9FF001E957F54F0F010E942627F0E0D6
:102F2E000E94A3240E947A27AEE0B0E00E94BA0469
:102F3E000E949A29E1E00E9462290E94AD298EC06A
:102F4E00ED3FA0E0FA0709F04FC00E94B229EBE076
:102F5E00E093B313EDEFE093B413E0919319E09384
:102F6E00B513E091E019E093B613E091DD19E0930B
:102F7E00B713E091DC19E093B813E091DF19E093F9
:102F8E00B913E091DE19E093BA130E9419270E943B
:102F9E00E028E093BB130E941927EC91E093BC1339
:102FAE000E942627F0E00E94A3240E94E028E093CE
:102FBE00BD130E942627F0E00E94A324EC91E0931B
:102FCE00BE13E3E0E093BF13E1E0E0938F19EFE06F
:102FDE00F0E0E0939E19F0939F190E94B929E091B9
:102FEE00B113E093CE003AC0EE3FA0E0FA0711F520
:102FFE00E091BE110E941F26A091DC19B091DD193F
:10300E00A083B183E091BE11ADECBCE00E949D2483
:10301E000F01E091BE11A1ECBCE0F0E00E94A324F0
:10302E000E947A270E949A29E1E00E9462290E945A
:10303E00AD2914C0E43FA0E0FA0781F40E94B9263E
:10304E00E093B313E4EF0E946C290E9470290E9452
:10305E00E424E09390190E949A2910E0E0E0E093B6
:10306E008D19B1CE19DE0E94012D2E960895AA93C8
:10307E001A930A93AD81AF3F09F02DC1AC81AA30EE
:10308E0009F0DDC000E0063008F071C0E02FA1E0CD
:10309E000E94CE2B1E2FAA810E94A728E12B0E94F0
:1030AE00C02919F40E94AC2829C0E130A0E0FA072B
:1030BE0019F40E94B12822C0E230A0E0FA0719F4F8
:1030CE000E94B6281BC0E330A0E0FA0719F40E9454
:1030DE00BB2814C0E430A0E0FA0719F40E94C028FF
:1030EE000DC0E530A0E0FA0719F40E94C52806C00D
:1030FE00E630A0E0FA0711F40E94CA280E9458296F
:10310E000E94A0290E94C52919F40E94AC2829C04A
:10311E00E130A0E0FA0719F40E94B12822C0E23093
:10312E00A0E0FA0719F40E94B6281BC0E330A0E015
:10313E00FA0719F40E94BB2814C0E430A0E0FA0785
:10314E0019F40E94C0280DC0E530A0E0FA0719F46A
:10315E000E94C52806C0E630A0E0FA0711F40E94CE
:10316E00CA280E9447270E94A0290F5F8CCF10E823
:10317E00AA810E94A728E12B0E94C02919F40E945F
:10318E00AC2829C0E130A0E0FA0719F40E94B1285A
:10319E0022C0E230A0E0FA0719F40E94B6281BC044
:1031AE00E330A0E0FA0719F40E94BB2814C0E43003
:1031BE00A0E0FA0719F40E94C0280DC0E530A0E087
:1031CE00FA0719F40E94C52806C0E630A0E0FA07F7
:1031DE0011F40E94CA280E94A0290E94C52919F440
:1031EE000E94AC2829C0E130A0E0FA0719F40E9431
:1031FE00B12822C0E230A0E0FA0719F40E94B628E6
:10320E001BC0E330A0E0FA0719F40E94BB2814C0DB
:10321E00E430A0E0FA0719F40E94C0280DC0E53092
:10322E00A0E0FA0719F40E94C52806C0E630A0E017
:10323E00FA0711F40E94CA280E94A0294BC0EC8103
:10324E00A1E00E94CE2B1E2FAB81A13029F4AA81C2
:10325E000E94A728E12B0DC0EB81E03059F4EA81E2
:10326E00F0E0E759F34F0F01A081E12FE095EA233B
:10327E00D001EC93EA81F0E0309719F40E94AC286B
:10328E0029C0E130A0E0FA0719F40E94B12822C04B
:10329E00E230A0E0FA0719F40E94B6281BC0E33012
:1032AE00A0E0FA0719F40E94BB2814C0E430A0E095
:1032BE00FA0719F40E94C0280DC0E530A0E0FA0705
:1032CE0019F40E94C52806C0E630A0E0FA0711F4F2
:1032DE000E94CA2829C0AD81A23091F4AB81A130E1
:1032EE0021F4E091720CE06806C0EB81E03039F415
:1032FE00E091720CEF77E093720C0E94CF2814C00D
:10330E00AD81A33089F4AB81A13021F4E091720C30
:10331E00E06806C0EB81E03039F4E091720CEF7793
:10332E00E093720C0E94CF28198108812696089589
:10333E001A930A9300E010E00C32E1E01E0740F40D
:10334E00F8010E94D8280E94A2280F5F1F4FF4CFC9
:10335E0000E010E00930E0E01E0708F5A2E0BBE057
:10336E00F8010E9422260E943626A6E2BBE0F80152
:10337E000E9422260E943626AAE4BBE0F8010E9493
:10338E0022260E943626AAE0A09FF001A19FF00DF2
:10339E00E05AF74F0E9462240F5F1F4FDBCF0E944F
:1033AE00D029E0936E0BF0936F0B6093700B7093BC
:1033BE00710B0E94D0290E9419280E94D029E093F7
:1033CE007E0BF0937F0B6093800B7093810B0E94AA
:1033DE00D0290E944B280E94D5290E945528099178
:1033EE00199108952A97E0E0E883E98331E00E947D
:1033FE0019030E940103E0E0E0930089E093008A44
:10340E00E093008BE093008CE093008DE093008EB0
:10341E00E093008FE0930088E0930090A0EDB7E07A
:10342E000E94AE2BE0E0EE83EF83AE81BF819897D2
:10343E0090F5EE81FF81E170A1F4E0E40E94DF29B6
:10344E00E0E20E94DF29E0E10E94DF29E8E00E942D
:10345E00DF29E4E00E94DF29E2E00E94DF29E1E0BB
:10346E0013C0E1E00E94DF29E2E00E94DF29E4E0E0
:10347E000E94DF29E8E00E94DF29E0E10E94DF29B7
:10348E00E0E20E94DF29E0E4E09300900E945E29D2
:10349E000E943C29CACF0E949D251CDBE1E0E51568
:1034AE0081F4E0E00E9455280E9453250E949A293B
:1034BE00E1E0BE2EE2E00E94E2290E94212530309A
:1034CE00F1F7BB2059F0E1E0EB1541F0E4E0EB152C
:1034DE0029F0E7E0EB1511F00C944024E0918D19E2
:1034EE00E03011F40C944024E091BD11E07F1E2FCA
:1034FE00E091BD11EF700E2FE091BD11F0E0E031C3
:10350E00A0E0FA0709F097C10E94A42921F0E23049
:10351E00A0E0FA0709F404C0E330A0E0FA0709F4CA
:10352E0004C0E430A0E0FA0761F5A091BE11A1300D
:10353E0011F4E0E011C0A091BE11A23011F4E1E04F
:10354E000BC0A091BE11A33011F4E2E005C0A09112
:10355E00BE11A43019F4E3E0E0932D1DE0E00E94CB
:10356E0055280E94B9260E949326E1E00E94C126AA
:10357E000E9470290E9453250E949A29E1E0BE2ED6
:10358E0053C1E031A0E0FA0771F40E949A29E0914C
:10359E00720CE0620E945B25E0E0E093EF19E1E03F
:1035AE00E093EE1946C1EA30A0E0FA0721F0EB30C5
:1035BE00A0E0FA0709F404C0EC30A0E0FA0709F421
:1035CE0004C0ED30A0E0FA0709F404C0EE30A0E02C
:1035DE00FA0709F405C0EF30A0E0FA0709F042C07F
:1035EE000E9453250E94B9260E949326E091BE1197
:1035FE000E94C1260E9470290E949A29E0E0E88765
:10360E00E987A885B985A835E2E0BE0758F4E885B4
:10361E00F985A5EEBCE00E94A3240E94A2280E9478
:10362E00E829EFCFE2E0BE2EE091BE11EA50E09322
:10363E008E0BE0E0E093B30CE093B40C0E94772580
:10364E00E0E00E94D529E093750CE093760CE0E063
:10365E00E093790CE0937A0CE091720CE1600E9499
:10366E005B25E7C0E530A0E0FA0739F40E944D254E
:10367E000E941025E093C61DDCC0E03BA0E0FA07D7
:10368E0041F40E949A29E091720CE4600E945B253D
:10369E00D0C0E13BA0E0FA0741F40E949A29E091E4
:1036AE00720CEB7F0E945B25C4C0E03CA0E0FA07E1
:1036BE0041F40E949A29E091720CE8600E945B2509
:1036CE00B8C0E13CA0E0FA0741F40E949A29E091CB
:1036DE00720CE77F0E945B25ACC0E03AA0E0FA07CF
:1036EE0041F526DEE0E0E887E987A885B9851997D8
:1036FE00A8F4E885F985EF5EF34EE081E03059F0ED
:10370E000E94EE29E35AF74FDF01E885F985EF5E57
:10371E00F34EE081EC930E94E829E7CF0E94B92690
:10372E000E949326EFE00E94C1260E947029B4DA0F
:10373E0080C0E03EA0E0FA0721F0E13EA0E0FA07EB
:10374E0009F404C0E23EA0E0FA0709F404C0E33E27
:10375E00A0E0FA0709F404C0E43EA0E0FA0709F479
:10376E0004C0E53EA0E0FA0709F404C0E63EA0E07E
:10377E00FA0709F404C0E73EA0E0FA0709F404C012
:10378E00E83EA0E0FA0729F44424E091BE11E05E81
:10379E0030C0E03FA0E0FA0721F0E13FA0E0FA07D9
:1037AE0009F404C0E23FA0E0FA0709F404C0E33FC5
:1037BE00A0E0FA0709F404C0E43FA0E0FA0709F418
:1037CE0004C0E53FA0E0FA0709F404C0E63FA0E01C
:1037DE00FA0709F404C0E73FA0E0FA0709F404C0B1
:1037EE00E83FA0E0FA0729F5E1E04E2EE091BE1188
:1037FE00E05F7E2E9DDD0E9453250E94B9260E9419
:10380E009326E091BE110E94C1260E9470290E944B
:10381E009A29E4E0BE2EE0E0E093B911E093BA11EC
:10382E00E093BB11E093BC11E2E00E94E2290E94FA
:10383E0021250C943D24E032A0E0FA0709F08CC15A
:10384E000E94A42909F0DFC0A091BF110E94A729F0
:10385E000E94D324E091C011A091C00AB091C10A78
:10386E00F0E0EA2BFB2B0E94D324A091C1110E9401
:10387E00A7290E94CE24A091C20AB091C30AE0915A
:10388E00C211F0E0EA2BFB2B0E94CE24E091C31173
:10389E00E0E0E093C40AA091C40AE091C411EA2BBF
:1038AE00E093C40AA091C5110E94A7290E94D824B2
:1038BE00A091C50AB091C60AE091C611F0E0EA2BBC
:1038CE00FB2B0E94D824A091C7110E94A7290E9409
:1038DE00B524E091C8110E94F025F0E0EA2BFB2BF5
:1038EE000E94B524A091C9110E94A7290E94BA2452
:1038FE00A091A60AB091A70AE091CA11F0E0EA2BB6
:10390E00FB2B0E94BA24A091CB110E94A7290E94E2
:10391E00C924A091A80AB091A90AE091CC11F0E0B7
:10392E00EA2BFB2B0E94C924A091CD110E94A7293E
:10393E000E94BF24A091AA0AB091AB0AE091CE11C9
:10394E00F0E0EA2BFB2B0E94BF24A091CF110E9426
:10395E00A7290E94C424A091AC0AB091AD0AE091AF
:10396E00D011F0E0EA2BFB2B0E94C424A091D111C0
:10397E000E94A729E093C70AF093C80A0E941F2944
:10398E00E091D211F0E0EA2BFB2BE093C70AF09303
:10399E00C80AA091D3110E94A729E093CD0AF093F3
:1039AE00CE0AA091CD0AB091CE0AE091D411F0E0EA
:1039BE00EA2BFB2BE093CD0AF093CE0AA091D51102
:1039CE000E94A729E093CF0AF093D00AA091CF0AC4
:1039DE00B091D00AE091D611F0E0EA2BFB2BE093E8
:1039EE00CF0AF093D00AE091D711E093D10AAFE05D
:1039FE00B0E00E94BA04A1E1B0E00E94BA040E94B5
:103A0E00F3144AD9A8C0E230A0E0FA0709F0A3C027
:103A1E000E94B229EBE1E093B313E0E20E94F42995
:103A2E00E091C00AF091C10A0E94F52BE093B61303
:103A3E00E091C00AE093B713E091C20AF091C30A75
:103A4E000E94F52BE093B813E091C20AE093B913EC
:103A5E00A091C40AE8E00E94D62BE093BA13E0913D
:103A6E00C40AE093BB13E091C50AF091C60A0E9406
:103A7E00F52BE093BC13E091C50AE093BD13E091E2
:103A8E00A40AF091A50A0E94F52BE093BE13E091D3
:103A9E00A40AE093BF13E091A60AF091A70A0E9430
:103AAE00F52BE093C013E091A60AE093C113E091C9
:103ABE00A80AF091A90A0E94F52BE093C213E09197
:103ACE00A80AE093C3130E942E290E94F52BE093BF
:103ADE00C413E091AA0AE093C513E091AC0AF091E9
:103AEE00AD0A0E94F52BE093C613E091AC0AE09369
:103AFE00C713E091C70AF091C80A0E94F52BE09314
:103B0E00C813E091C70AE093C913E091CD0AF09172
:103B1E00CE0A0E94F52BE093CA13E091CD0AE093F2
:103B2E00CB13E091CF0AF091D00A0E94F52BE093CF
:103B3E00CC13E091CF0AE093CD13E091D10AE0933C
:103B4E00CE13E3E0E093CF130E94FA29EFE1F0E009
:103B5E000E945A28A1D88AC6E033A0E0FA0709F0DD
:103B6E002BC20E94A42909F030C142E050E0E0E0EF
:103B7E00E887E987A885B985189718F5E0E0EE8300
:103B8E00EF83AE81BF811697B8F40E94FE290E9482
:103B9E00062A0E940A2A0E94122A0E94182A0E94AD
:103BAE00122A0E94262AE254F74F0E94322A0E94BD
:103BBE00362A0E943C29E5CF0E94472A0E94E82916
:103BCE00D9CF0E94472AE0E0E887E987A885B98522
:103BDE00189718F5E0E0EE83EF83AE81BF8116975C
:103BEE00B8F40E94FE290E94062A0E940A2A0E9408
:103BFE004C2A0E94182A0E944C2A0E94262AE6531A
:103C0E00F74F0E94322A0E94362A0E943C29E5CFA5
:103C1E000E94472A0E94E829D9CF0E94472AE0E055
:103C2E00E887E987A885B985189720F50E94522A5A
:103C3E003196EC83FD830E94522A0E945A2AAE0FBF
:103C4E00BF1F13960E94632A0E94692A3396BF01F2
:103C5E00A081E8E00E94CE2BDB010E94692A3396F8
:103C6E000F01A0810E946F2AEA2BD001EC930E94D3
:103C7E00E829D8CF0E94472AADEBB1E1A40FB51FBA
:103C8E00EC91A8EBBAE0F0E0ED93FC93F091B80A5A
:103C9E00E0E0E093B80AF093B90AA091B80AB091A7
:103CAE00B90A0E94752AE093B80AF093B90AAEEBEE
:103CBE00BAE00E947D2AF091BE0AE0E0E093BE0ACF
:103CCE00F093BF0AA091BE0AB091BF0A0E94852A46
:103CDE00E093BE0AF093BF0A4C5F5F4FADEBB1E1CC
:103CEE00A40FB51FEC91A4EBBAE0F0E0ED93FC93BA
:103CFE00F091B40AE0E0E093B40AF093B50AA09113
:103D0E00B40AB091B50A0E94752AE093B40AF093F2
:103D1E00B50AA6EBBAE00E947D2AF091B60AE0E061
:103D2E00E093B60AF093B70AA091B60AB091B70A1B
:103D3E000E94852AE093B60AF093B70AAAEBBAE07E
:103D4E00FA01EF53FE4EE081F0E0ED93FC93F0911B
:103D5E00BA0AE0E0E093BA0AF093BB0AA091BA0A5D
:103D6E00B091BB0AFA01EE53FE4EE081F0E0EA2B71
:103D7E00FB2BE093BA0AF093BB0AACEBBAE0FA0164
:103D8E00ED53FE4EE081F0E0ED93FC93F091BC0A12
:103D9E00E0E0E093BC0AF093BD0AA091BC0AB0919A
:103DAE00BD0AFA01EC53FE4EE081F0E0EA2BFB2B4C
:103DBE00E093BC0AF093BD0A0E948D2AA0E1B0E008
:103DCE000E94BA040E945316F6C0E230A0E0FA0731
:103DDE0009F0F1C0E2E0E093B113E0E30E94F429B0
:103DEE0045E050E0E0E0E887E987A885B9851897B7
:103DFE00E8F4E0E0EE83EF83AE81BF81169788F49E
:103E0E000E94FE290E94062A0E94952A0E94122ACA
:103E1E000E94A12A0E94122A0E94B42A0E943C29C2
:103E2E00EBCF0E94472A0E94E829DFCF0E94472A43
:103E3E00E0E0E887E987A885B9851897E8F4E0E01F
:103E4E00EE83EF83AE81BF81169788F40E94FE2920
:103E5E000E94062A0E94952A0E944C2A0E94A12A9C
:103E6E000E944C2A0E94B42A0E943C29EBCF0E9449
:103E7E00472A0E94E829DFCF0E94472AE0E0E88720
:103E8E00E987A885B9851897E0F40E94522A3196E1
:103E9E00EC83FD830E94522A0E94B92ABF010E9420
:103EAE00BE2AAC91E8E00E94D62BDB010E94C82A04
:103EBE000F010E94BE2AEC91D001EC930E94E829DA
:103ECE00E0CF0E94472ADA01AF54BC4EE091B80A07
:103EDE00F091B90A0E94CE2AEE54FC4EDF01E09119
:103EEE00B80AEC93FA01ED54FC4EDF01E091BE0AE4
:103EFE00F091BF0A0E94CE2AEC54FC4EDF01E091F5
:103F0E00BE0AEC934C5F5F4FDA01AF54BC4EE091AA
:103F1E00B40AF091B50A0E94CE2AEE54FC4EDF018F
:103F2E00E091B40AEC93FA01ED54FC4EDF01E091FE
:103F3E00B60AF091B70A0E94CE2AEC54FC4EDF016D
:103F4E00E091B60AEC93FA01EB54FC4EDF01E091DE
:103F5E00BA0AF091BB0A0E94CE2AEA54FC4EDF0147
:103F6E00E091BA0AEC93FA01E954FC4EDF01E091BC
:103F7E00BC0AF091BD0A0E94CE2AE854FC4EDF0125
:103F8E00E091BC0AEC93485F5F4FFA0133970E94B1
:103F9E008E26E42FE350E093B313A1EBB3E1A40F0D
:103FAE00B51FE3E0EC930E94FA29FA0131960E94C4
:103FBE005A280E9453165AC4E034A0E0FA0709F0BA
:103FCE00C6C20E94A42909F072C142E050E0E0E0AE
:103FDE00E887E987A885B9851797B8F50E94522A10
:103FEE000E94D32A0E94D62AE1F4A8EAB8E00E94E1
:103FFE00632AF0E0ED93FC93F091A808E0E0E093E3
:10400E00A808F093A908A091A808B091A9080E9449
:10401E006F2AF0E0EA2BFB2BE093A808F093A90897
:10402E0011C00E94EE29E85AF74FDF010E94632A61
:10403E000E94DD2AE85AF74F0E94E12AE85AF74F0C
:10404E000E94362A0E94E829C5CF0E94472AE0E046
:10405E00E887E987A885B9851797B8F50E94522A8F
:10406E000E94D32A0E94D62AE1F4AAEAB8E00E945E
:10407E00632AF0E0ED93FC93F091AA08E0E0E09360
:10408E00AA08F093AB08A091AA08B091AB080E94C1
:10409E006F2AF0E0EA2BFB2BE093AA08F093AB0813
:1040AE0011C00E94EE29E65AF74FDF010E94632AE3
:1040BE000E94DD2AE65AF74F0E94E12AE65AF74F90
:1040CE000E94362A0E94E829C5CF0E94472AE0E0C6
:1040DE00E887E987A885B9851997D8F40E94522AEE
:1040EE000E94D32A3196EC83FD830E94EE29E25A78
:1040FE00F74FDF010E94632A0E94DD2AE25AF74F32
:10410E000E94E12AE25AF74F0E94362A0E94E829BD
:10411E00E1CF0E94472AE0E0E887E987A885B985C4
:10412E001997B8F40E94E92AEA83FB830E94EE29CC
:10413E00E35AF74FDF010E94632AEC93E885F98575
:10414E00EF5EF34E0E94EE2A0E94F12A0E94E829A9
:10415E00E5CF0E94F82AA885B985189768F40E94C1
:10416E00E92A0E945A2AAE0FBF1F12960E94632A96
:10417E00EC930E94E829EFCF0E94F82AA885B98512
:10418E00189778F40E94E92AEA83FB830E94EE29AD
:10419E00E45AF74FDF010E94632AEC930E94E8294C
:1041AE00EDCF0E94F82AA885B985199708F50E94C7
:1041BE00522A0E94D32A3196EC83FD830E94002B53
:1041CE000E94632AF0E0ED93FC930E94002BED9188
:1041DE00FD91FE2FE0E0FE93EE93E885F985A2E6D1
:1041EE00BAE00E9410260E94362A0E94E829DBCFF0
:1041FE00E091820AE093C71D0E94472AE0E0E8871B
:10420E00E987A885B985189730F5E0E0EE83EF834E
:10421E00AE81BF811697D0F40E94FE29EA83FB83FC
:10422E000E94FE2931960E94052B0E940D2B0E94A2
:10423E00182A0E940D2B0E94262AEA52F74F0E943E
:10424E00322A0E94362A0E943C29E2CF0E94472A37
:10425E000E94E829D6CF0E94472AE0E0E887E98746
:10426E00A885B9851897D0F4E0E0EE83EF83AE8190
:10427E00BF81169770F4EE81FF81E40FF51F0E9447
:10428E00052B0E94132B0E946F2AEC930E943C294F
:10429E00EECF0E94472A0E94E829E2CFABE0B0E0C1
:1042AE000E94BA040E948D2A0E9453164FC1E2301A
:1042BE00A0E0FA0709F04AC1E2E0E093B113E0E4AE
:1042CE000E94F429E5E0F0E0E883F983A091580814
:1042DE00B0915908A436E0E0BE0714F40E942429D8
:1042EE00E0E0E887E987A885B985179728F50E9449
:1042FE001A2B0E94242B0E94D62A69F4AA81BB8114
:10430E00AF54BC4EE091A808F091A9080E94272B4B
:10431E00E091A8080DC00E942F2BE85AF74F0E947B
:10432E00342B0E94EE2AE85AF74FE081A72FB82FC0
:10433E00EC930E94E829D7CF0E943C2BA885B98523
:10434E00179728F50E941A2B0E94242B0E94D62A1A
:10435E0069F4AA81BB81AF54BC4EE091AA08F091DA
:10436E00AB080E94272BE091AA080DC00E942F2BAC
:10437E00E65AF74F0E94342B0E94EE2AE65AF74F68
:10438E00E081A72FB82FEC930E94E829D7CF0E9487
:10439E003C2BA885B9851997C0F40E941A2B0E9450
:1043AE00242B3196EC83FD830E942F2BE25AF74F7C
:1043BE000E94342B0E94EE2AE25AF74FE081A72F7B
:1043CE00B82FEC930E94E829E4CF0E943C2BA885DD
:1043DE00B985199748F40E94452B0E94EE2A0E9437
:1043EE00F12A0E94E829F3CF0E944C2BA885B985AB
:1043FE00189790F40E94452B0F01E885F985A2E6E7
:10440E00BAE00E94E72BAE0FBF1F1296EC91D001BF
:10441E00EC930E94E829EACF0E944C2BA885B9851F
:10442E00189768F40E94452B0E94EE2AE45AF74F23
:10443E00E081A72FB82FEC930E94E829EFCF0E94BE
:10444E004C2BA885B9851997C8F40E941A2B0E9487
:10445E00242B0E94552B0F010E94002B0E94C72C6B
:10446E000E94F52BD0010E94C82A0F010E94002B3A
:10447E00EC91D001EC930E94E829E3CF0E943C2BF3
:10448E00A885B985189708F5E0E0EE83EF83AE8135
:10449E00BF811697A8F40E945D2BEA83FB830E94CE
:1044AE005D2B0E94552B0E94672B0E940D2B0E94A4
:1044BE00A12A0E940D2B0E94B42A0E943C29E7CF0C
:1044CE000E946F2B0E94E829DBCF0E943C2BA8850F
:1044DE00B985189708F5E0E0EE83EF83AE81BF81D2
:1044EE001697A8F4EE81FF81A881B981EA0FFB1F10
:1044FE00EC83FD83EF54FC4E0E94672B0E94132B1E
:10450E00EC91A72FB82FEC930E943C29E7CF0E9485
:10451E006F2B0E94E829DBCF0E946F2BE881F98177
:10452E00EF54FC4EA3E0A083E881F98133970E94FB
:10453E008E26E881E350E093B3130E94FA29E881B6
:10454E00F98131960E945A280E9453168FC1E13E7E
:10455E00A0E0FA07C1F40E9453160E94A42941F468
:10456E000E949A29E0E0E0938F19E7E0BE2E0AC080
:10457E00E230A0E0FA0731F40E949A29E0E0E093DD
:10458E008F19BB2473C1E03BA0E0FA0709F05AC0B3
:10459E000E94A42921F0E230A0E0FA0709F404C039
:1045AE00E330A0E0FA0709F404C0E430A0E0FA0713
:1045BE0009F404C0E530A0E0FA0709F404C0E630BF
:1045CE00A0E0FA0749F40E94752B0E947C2B0E94F2
:1045DE00752B0E94852B35C0E730A0E0FA0749F411
:1045EE000E948E2B0E947C2B0E948E2B0E94852B6C
:1045FE0028C0E830A0E0FA0749F40E94942B0E94EC
:10460E009B2B0E94942B0E94A12B1BC0E930A0E093
:10461E00FA0749F40E94A72B0E949B2B0E94A72BFE
:10462E000E94A12B0EC0EA30A0E0FA0751F40E94BE
:10463E008E2BE1E0EA93E091BF11E150AE2F0E9484
:10464E003E1812C1E03FA0E0FA0719F40E945F166F
:10465E000DC1E038A0E0FA0709F0EEC00E94A429CF
:10466E0009F085C0A091BF110E94A729DF01E0913A
:10467E00C011F0E0EA0FFB1FE093D90CF093DA0CB7
:10468E00E093870AF093880AA091C1110E94A7298E
:10469E00DF01E091C211F0E0EA0FFB1FE093DB0CAB
:1046AE00F093DC0CE091DB0CF091DC0CE0938C0AC7
:1046BE00F0938D0AA091C3110E94A729DF01E0910A
:1046CE00C411F0E0EA0FFB1FE093DD0CF093DE0C5B
:1046DE00E091DD0CF091DE0CE093910AF093920ADA
:1046EE00A091C5110E94A729DF01E091C611F0E04B
:1046FE00EA0FFB1FE093DF0CF093E00CE091DF0C70
:10470E00F091E00CE093960AF093970AA091C711EE
:10471E000E94A729DF01E091C811F0E0EA0FFB1F0C
:10472E00E093E10CF093E20CE091E10CF091E20CDD
:10473E00E0939B0AF0939C0AA091C9110E94A729AD
:10474E00DF01E091CA11F0E0EA0FFB1FE093E30CEA
:10475E00F093E40CE091E30CF091E40CE093A00AEA
:10476E00F093A10AAEE0B0E00E94BA0464C0E23059
:10477E00A0E0FA0709F05FC0AEE0B0E00E9463046B
:10478E000E94B229EEE0E093B313E0E80E94F42910
:10479E00E091870AF091880A0E94F52BE093B613F8
:1047AE00E091870AE093B713E0918C0AF0918D0A9D
:1047BE000E94F52BE093B813E0918C0AE093B913A5
:1047CE00E091910AF091920A0E94F52BE093BA13B0
:1047DE00E091910AE093BB13E091960AF091970A4B
:1047EE000E94F52BE093BC13E091960AE093BD1363
:1047FE00E0919B0AF0919C0A0E94F52BE093BE1368
:10480E00E0919B0AE093BF13E091A00AF091A10AF8
:10481E000E94F52BE093C013E091A00AE093C11320
:10482E00E3E0E093C2130E94FA29E2E1F0E00E9475
:10483E005A280E949A2918C0EA3AA0E0FA07B1F461
:10484E00E091BE11F0E0E535A0E0FA0779F40E94A0
:10485E00B926E093B313EAEAE093B413E091E719B3
:10486E000E94C1260E9470290E945316E0E0E09338
:10487E008D190C94681AFFCFBA93AA9399818881E7
:10488E00009641F0BD81AC81FB81EA8161916D930F
:10489E000197E1F7FD81EC8126960895EE0FFF1F3B
:1048AE00AE0FBF1F0E94C72CD001ED93FC93AAE060
:1048BE001A9FF0010895A0E0B0E0A083B18308959F
:1048CE00DF01EE27A00FBE1F0895A0E31A9FF0018F
:1048DE00E854F74F0895EA0FFB1F0F01E02FF0E0A9
:1048EE000895AE0FBF1FEC91D0010895A0E31A9F5B
:1048FE00F001E254F74FDF01E02FF0E0EE0FFF1F63
:10490E000895EE0FFF1FAE0FBF1F0E94C72CD001E0
:10491E00ED93FC93A0E31A9FF0010895E653F74F31
:10492E00DF01E02FF0E0EE0FFF1F0895F0E0EE0F35
:10493E00FF1FEA0FFB1F0895EE0FFF1FAE0FBF1FE5
:10494E000895E12FA2E6BAE0F0E00E94E72B089569
:10495E00A5E01A9FF001E957F54F0895E093A40AD8
:10496E00F093A50A0895E093A60AF093A70A089576
:10497E00E093AA0AF093AB0A0895E093AC0AF09381
:10498E00AD0A0895E093A80AF093A90A0895E0935A
:10499E00C20AF093C30A0895E093C00AF093C10AC5
:1049AE000895E093C50AF093C60A0895E8E6F1E08B
:1049BE00E093C70AF093C80A0895E0E0E0938100FF
:1049CE000895E0938500E0E0E093840008950E944E
:1049DE00A203A0E00C94A203FA93EA93E1E0FAE1B9
:1049EE00FA93EA930895E1E0FAE1FA93EA930895CF
:1049FE00E0E0E093E919E093EB19E091231DF091CB
:104A0E00241DE093F019F093F119E0E0E093ED1915
:104A1E000895E0E0E093C51DE1E00895E0911F1DCB
:104A2E00F091201D0895E091C40AEB5FE093ED191B
:104A3E00E1E00895E0E0E0938900EEE4E093880081
:104A4E00E5E0E09381000895E0E0E093EA19E0915B
:104A5E00211DE093EC19E0E0E093F219E093F319D5
:104A6E000895E091720CEE7FE093720C0895E0933E
:104A7E000088E091E819EF7DE093E819E09300904B
:104A8E000895E0931D1DE0931E1D0895E1E0E0934F
:104A9E00F819E0932C1D0895E091E819E062E09377
:104AAE00E819E09300900895E093720CE09300886B
:104ABE0008950A921A92FA926A937A938A939A9323
:104ACE00AA93BA93EA93FA93EFB7EA930895E09113
:104ADE00B911F091BA116091BB117091BC1108958A
:104AEE00E0E0E093730CE093740C0895A091730CC6
:104AFE00B091740C0895A091B911B091BA11809132
:104B0E00BB119091BC11A130E0E0BE07E0E08E0732
:104B1E00E0E09E070895A9EBB1E10E94D12CEF5F72
:104B2E00FF4F6F4F7F4F0E94DB2C0895E091E819E5
:104B3E00E09300900895E091730CF091740C089539
:104B4E00E091C50AF091C60AD1DFEA17FB07089576
:104B5E00E091E819EF7DE093E819E8CFE2E0E09309
:104B6E009519E0E0E0939619E4E0E0939719E1EEF1
:104B7E00E0939819E1E0E0939919E091740CE093B9
:104B8E009A19E091730CE0939B19E3E0E0939C1962
:104B9E000895E1EBF3E1FA93EA93E5E9F9E1FA938B
:104BAE00EA93A8E0B0E00E944324E1E0E0938F197D
:104BBE00E1E0F0E0E093A019F093A119E8E0F0E055
:104BCE00E0939E19F0939F19E091B113E093CE00FC
:104BDE000895A091A40AB091A50A089587DFAE1793
:104BEE00BF07089588279927EBEFF2E060E070E0A9
:104BFE000E94372CDF01CB01E0E1F7E260E070E0CC
:104C0E000E94872C0895E091730CEA1B5E2FA52F4E
:104C1E0008950E94E72BEA0FFB1F0895E52FA1EAE6
:104C2E00B1E1F0E008950E94FA2B0E94872C0895BE
:104C3E00A1ECBCE07BCE0E94E72BAE0FBF1F089508
:104C4E00ABEFB2E080E090E00E94372CDF01CB01A9
:104C5E00E0E1F7E260E070E00E94872C0895E0E06A
:104C6E00F0E060E070E00E94D62C089564DFA09121
:104C7E00B10CB091B20CEA17FB070895E091AB0CA2
:104C8E00F091AC0CABCFA1E00E94CE2BE88708953B
:104C9E00A2E8BBE0A00FB11F0895A1E00E94CE2BA9
:104CAE00A0912F1DEA2BE0932F1D089544DFA5EE52
:104CBE00BCE0EE0FFF1FEA0FFB1F08953CDFA5EED1
:104CCE00BCE03ACE0E94C72C662777270895E09164
:104CDE00D10AF0E0E15DF24EA0810895ED91FD91D3
:104CEE003196FE93EE930895E091B911F091BA11B9
:104CFE00E093B30CF093B40C0895E9DEA091B30CDD
:104D0E00B091B40C882799270E94F52C0895EF2FA7
:104D1E00F0E0E093B2130895E093B313E0E1E09373
:104D2E00B4130895E093B513E6EBF3E1FA93EA9327
:104D3E000895EA54FC4EA3E0A083E1E0E0938F19BE
:104D4E00E1E0F0E0E093A019F093A1190895F901C4
:104D5E003696E0939E19F0939F19E091B113E0936C
:104D6E00CE007FCEE2E0E093B113E0E0E093B21329
:104D7E00E2E00895E093B513E3E0E093B613E1E0CB
:104D8E00E0938F19E1E0F0E0E093A019F093A11900
:104D9E000895AA93BA93EA93FA93EFB7EA93089514
:104DAE00E0E0E983EA83EB830895F0E0E130A0E0F0
:104DBE00FA070895A091A819B091A9198091AA197E
:104DCE009091AB190895E0919119ACEAB9E108956B
:104DDE00F1DF0E94BD2BA093A819B093A91980935F
:104DEE00AA199093AB19EFCFE0919119EF5FE09371
:104DFE009119E150ACEAB9E1F0E09ECDDBDF0E9403
:104E0E00B82BE093A819F093A9196093AA1970937F
:104E1E00AB19E0919219A09191190E948C2CE093FC
:104E2E0091190895E0919319A1ECBCE0F0E084CDC6
:104E3E000E94C72CA091DC19B091DD190895E09164
:104E4E009319A9EDBCE00895662777270E94372CA9
:104E5E00DF01CB01E8EEF3E060E070E00E94872C0A
:104E6E000895E4EEF2E760E070E00E94372CDF0177
:104E7E00CB01E0EAF6E861E070E00E94872C08952D
:104E8E00E091E819EF77E093E81950CEEB85A8E2B0
:104E9E00EA9FF001E35DF34EDF01EE81F0E04CCDD1
:104EAE00AF81B88589859A8508950E94B82BEF83C6
:104EBE00F88769877A870895E0911D1CF0E0F0DF8E
:104ECE00B2CEEEDFF2CFEC81A5EBBCE0F0E034CD5C
:104EDE000D901C90EC81A1ECBCE00895EC81A1EC4E
:104EEE00BCE0F0E029CD0E94C72CD001ED93FC93DD
:104EFE0008950E94C72CEF2FF0E0E093CE000895A6
:104F0E000E94F52BE093CE000895E0915A08F0919F
:104F1E005B080895E0916408F09165080895E091AA
:104F2E006E08F0916F080895E0917808F091790875
:104F3E000895E0918208F09183080895E0918C081D
:104F4E00F0918D080895ED8DA1E00E94CE2B08956D
:104F5E00ED8DF0E0E857F44F0895E091D10AF0E0BE
:104F6E00E15DF24E0895AAEEBAE0ED8DF0E063CE6B
:104F7E00E091A808F091A9082E173F07089518E0B0
:104F8E00A2E2BBE00E94D12CEF5FFF4F6F4F7F4F2D
:104F9E000E94DB2CA091460BB091470B8091480BE1
:104FAE009091490BF9010E94FA2B0E94B82BE093C5
:104FBE00460BF093470B6093480B7093490BE091AF
:104FCE00AD08E0300895A091B008B091B108E0911D
:104FDE00AE08F091AF08AE17BF070895AAE6BBE082
:104FEE000E94D12CEF5FFF4F6F4F7F4F0E94DB2C43
:104FFE000895E091AD08E093191CE0E0E093AD0850
:10500E00E0EBF8E058CC0E94D12CEF5FFF4F6F4FD2
:10501E007F4F0E94DB2C0895F9010E94FA2B0E940B
:10502E00B82B0895E093720BF093730B6093740B8F
:10503E007093750B0895A2E0BBE0E12FF0E0FBCD7D
:10504E00AAE01A9FF001E45AF74FE081F0E00895CC
:10505E000E94FA2B0E94922CAF0108950E94CB2C35
:10506E00E150F040604070400895E12FF0E031963D
:10507E00FE2FE0E04E2B5F2B0895A0E0B6E0EE0F82
:10508E00FF1FEA0FFB1F0895E0937A0BF0937B0B43
:10509E0060937C0B70937D0BE0E00895E093A6196E
:1050AE00E093A7190895E0939E19F0939F19E0914C
:1050BE00B113E093CE000895A6E01A9FF001EF56CB
:1050CE00F44FFECBA6E01A9FF001E953F44FF8CB54
:1050DE00AE0FBF1F0E94C72C0895A22FB0E0AE17CF
:1050EE00BF070895EC93A6E01A9FF001ED5CF34F15
:1050FE00E7CBAE0FBF1F1296EC91F0E03197A02FC9
:10510E00B0E0EA17FB070895E12FABE7BCE0F0E053
:10511E0013CCE12FF0E0E759F34FBF012081D5CB3F
:10512E00A6E01A9FF001E350F44FCACBE12FADE891
:10513E00BCE0F0E001CCE0E0F0E0ED93FC930895EC
:10514E00B0E0A759B34FEC910895E091690CE0934C
:10515E0000890895E0916A0CE093008A0895E09129
:10516E006B0CE093008B0895E0916C0CE093008C37
:10517E000895E0916D0CE093008D0895E0916E0C12
:10518E00E093008E0895E0916F0CE093008F0895E8
:10519E00E091720CE093008808953197A0E0B6E09C
:1051AE00CBCBA0E0B6E0C8CBE091B80AF091B90A3B
:1051BE00F8CF0E94C72CEF2FF0E00895AE0FBF1F5F
:1051CE001396EC91F0E03597ECCF0E94C72CFF7050
:1051DE00BF01A0E31A9FF0010895DF010E94C72CC2
:1051EE00E617F7070895A0EAA083ABCBAE0FBF1F5B
:1051FE001396EC91F0E03497D4CFAE0FBF1F1396F9
:10520E00EC91F0E03397CDCFAE0FBF1F1396EC911C
:10521E00F0E03297C6CFAE0FBF1F1396EC91F0E0C1
:10522E00BCCFAE0FBF1F1396EC91F0E03097B9CF05
:10523E00A091C70AB091C80A0895E091A808F0910C
:10524E00A9083197E0935808F09359080895E09112
:10525E00AA0AF091AB0A08950E945D2CDF01E0913D
:10526E00F419F0E00E945D2C0895EE81FF813196D5
:10527E00EE83FF830895E0E0E093A819E093A91967
:10528E00E093AA19E093AB19E093DC19E093DD19D2
:10529E00E093911908950E94C72C8CDD662777271D
:1052AE000895E091E819E068E093E8193FCCA2E395
:1052BE00B0E00C94AE2BE0939019E0E082CBE0933B
:1052CE008800E5E0E09381000895E093B413E1E0F7
:1052DE0051CDE6E0F0E0E7CEE0919219AC85BD85C8
:1052EE00F0E0AE17BF070895EC85FD85ACEAB9E195
:1052FE00EE0FFF1FEA0FFB1F0895EA85FB85662759
:10530E00772758DD0E94B82B0895E093A819F093E3
:10531E00A9196093AA197093AB190895EE0FFF1F88
:10532E00EA0FFB1F08950E945316A8ECB0E00C94F0
:10533E00AE2BA4E6B0E00C94AE2BE091BE1135CDB1
:10534E00B0E0E0E0F1E00E94322C0895E0E0E0935E
:10535E008900EFE1B4CFE2E0E093B113E0E0E09337
:10536E00B2130895E1E0F0E0E093A019F093A119D3
:10537E000895EC93EA81F0E030970895EA81F0E029
:10538E00E759F34F0F01A081E12FE095EA23D001F9
:10539E00F0CFE0E0F0E060E070E00895E093B91146
:1053AE00E093BA11E093BB11E093BC11E0E00895D5
:1053BE00E09300907CCFE0939019E091720CE16045
:1053CE0073CBE885F9853196E887F9870895A88526
:1053DE00B985EAE00E942C2C0895E093B413E2E024
:1053EE00E093B5130895E1E0E0938F19BBCFAE8142
:1053FE00BF81E2E00E942C2CE40FF51F0895319638
:10540E00EC83FD83F4CFEA83FB83A885B985E0E3C3
:10541E000E942C2C0895E254F74FDF01EE81FF819C
:10542E008BCAEA81FB81E354FE4EE081F0E0ED93FE
:10543E00FC93A885B985E0E30E942C2C0895ED918C
:10544E00FD91FE2FE0E0FE93EE93A885B985E0E393
:10545E000E942C2C0895DF01EE81FF815FCF0F019A
:10546E00DF010E94C72CDF01EC81FD81E354FE4E6B
:10547E00E081F0E0EA2BFB2BD001ED93FC93089535
:10548E00EC81FD813196AF010895E653F74FDF01B0
:10549E00EE81FF8151CAA885B985E2E00E942C2CCD
:1054AE00E40FF51F0895EA83FB83E885F985A2E6EC
:1054BE00BAE00E94E72B0895EA81FB81E354FE4E89
:1054CE00E0810895EC93E885F985A2E6BAE0A1CBD8
:1054DE00EC81FD81E354FE4EE0810895FA01E25421
:1054EE00FE4EE081F0E0EA2BFB2B0895FA01E15429
:1054FE00FE4EE081F0E0ED93FC930895FA01E05446
:10550E00FE4EE081F0E0EA2BFB2B0895ACE0B0E01C
:10551E000E94BA04ADE0B0E00C94BA04EA83FB83B7
:10552E00EF54FC4E7E2F8F2FA885B985E0E30E94A5
:10553E002C2C08950E94C72C0E94F52BA72FB82F54
:10554E00EC93EC81FD81EF54FC4E7E2F8F2FA885BE
:10555E00B985E0E30E942C2C0895EC91A72FB82F6B
:10556E00EC930895EA83FB83EF54FC4E0895E8858F
:10557E00F985A2E6BAE00E94E72BAE0FBF1F139685
:10558E000895EC93EC81FD81EF54FC4E08950E943A
:10559E00F52BEC93FA010895EA83FB837CCF3196C9
:1055AE00EC83FD83A885B98516970895F0E0ED93F9
:1055BE00FC930DCFDF01ED91FD91FE2FE0E0FE9308
:1055CE00EE9305CFE885F985E40FF51F08957E2F3C
:1055DE008F2FFDCEE35AF74FE081A72FB82FEC9314
:1055EE000895EA81FB813196AF01E0E0E887E98713
:1055FE000895E885F985A2E6BAE01DCBEC83FD831C
:10560E00A885B985E0E30E942C2C0895EA52F74F45
:10561E00DF01EE81FF8190C9E854F74FAE81BF8163
:10562E00AE0FBF1F0895A885B985E2E00E942C2C0D
:10563E00A881B981EA0FFB1F0895EA83FB83F3CF9C
:10564E000E94F52BEC93AC81BD81AF54BC4E0895F6
:10565E00EA81FB81EF54FC4EBACFDF010E94C72CCA
:10566E000E94F52BA72FB82F8CCFEC81FD813196A0
:10567E00E883F983E0E0E887E9870895E885F9850E
:10568E00A881B981EA0FFB1F6DCFEA81FB813196AC
:10569E00E883F983E0E0E887E98708953196EC83A3
:1056AE00FD83EA81FB81EF54FC4E0895AE81BF81EC
:1056BE00E2E00E942C2CA881B981EA0FFB1F08950D
:1056CE007E2F8F2FA885B985E0E30E942C2C08959C
:1056DE00EC81FD813196E883F9830895EFEFEA932B
:1056EE00E091BE11E150EA930895E1E0EA93E09172
:1056FE00BF11E150AE2F0E943E181BCEE0E0EA93A0
:10570E00E091BF11E150AE2F0E943E1812CEEFEF86
:10571E00EA93E091BE11EA930895E2E0EA93E091F4
:10572E00BE11E150EA930895E1E0EA93A0E00E94F1
:10573E003E18FFCDE0E0EA93A0E00E943E18F9CDBE
:10574E00E3E0EA93E091BE11E150EA9308951096DA
:10575E0039F080EA9FE00197F1F7A8951197C9F704
:10576E000895EA0FFB1F681F791F0895AE1BBF0B2C
:10577E00860B970B0895F195E195F0400895F095FD
:10578E0060957095E195FF4F6F4F7F4F0895EE2313
:10579E000E2EEA2F19F0EE0F0A94E9F70895EE2374
:1057AE000E2EEA2F19F0E6950A94E9F70895EE23E6
:1057BE000E2EFD0121F0F595E7950A94E1F7089577
:1057CE00EE0FFF1FEE0FFF1F0895F695E795F69566
:1057DE00E795F695E795F695E7950895EF2FFF2750
:1057EE00E7FDFFEF08956F2F660F660B762F089576
:1057FE008B2F880F880B982F0895FA9FF02DEB9F13
:10580E00F00DEA9FE02DF10D08957A9F702D6B9F9C
:10581E00700DF89F700DE99F700D6A9F602D710DD0
:10582E00FB9F600D711DE89F600D711D8827FA9F0B
:10583E00F02D610D781FEB9FF00D611D781FEA9F13
:10584E00E02DF10D681F781F08956E2F6A9FF001ED
:10585E006B9FF00D089573D0D0DF0EF48CDF08959A
:10586E007CD0D3DF0EF48BDF0895002498E0AA0FCE
:10587E00001C0E1A10F40E0E01C0A1609A95B9F715
:10588E00EA2FA02D08950024112490E1AA0FBB1F2A
:10589E00001C111C0E1A1F0A18F40E0E1F1E01C03A
:1058AE00A1609A9599F7FD01D001089548D0EBDFDC
:1058BE000EF461DF08953F934F935F9300241124FC
:1058CE004427552730E2AA0FBB1F881F991F001CC3
:1058DE00111C441F551F0E1A1F0A460B570B28F496
:1058EE000E0E1F1E461F571F01C0A1603A9559F795
:1058FE00FD01BC01D001CA015F914F913F91089506
:10590E002CD0D9DF0EF43BDF0895AFDFEA2F0895D8
:10591E00BADFFD010895E89497FF09C0A095B095F0
:10592E0080959095AF5FBF4F8F4F9F4F689477FDD7
:10593E0026DFC1DFFD01BC010EF421DF0895E894DE
:10594E00F7FF02C018DF6894B7FF06C0A095B095A8
:10595E00119600F8039400FA0895E89477FF02C0B8
:10596E000EDF689497FF0BC00024A095B09580952C
:10597E0090951196801D901D00F8039400FA0895DD
:10598E00ED91FC9111970895ED91FD916D917C91A2
:10599E0013970895ED91FD916D917D910895ED937D
:1059AE00FD936D937C9308957E936E93FE93EE9389
:1059BE0008951B2EBF2FF12D1A2EAE2FE12D089517
:1059CE0000240E160F06060607060895309760404F
:1059DE007040089500240A160B060895AE17BF07EF
:1059EE008607970708955A934A933A932A931A93E0
:1059FE000A9308955D814C813B812A81198108812A
:105A0E000895AC0FBD1F05900D928A95E1F708958C
:00000001FF
